02RETORNO01COBRANCA       00000000000000616741YAMAHA ADMINISTR. CONS SC LTDA237BRADESCO       2811190160000003754                                                                                                                                                                                                                                                                          291119         000001
1024745815300014000000060237401651994                         000000004164314088760000000000000000000000000602281119002008826300000000416431408876101219000000001260523704152  000000000000000000000000000000000000000000000000000000000000000000000000000000000000000000000000000000000000000000000                          0000000000                                                                  000002
1024745815300014000000060237401651994                         000000004164314089140000000000000000000000000602281119002010568900000000416431408914031219000000005985523704151  000000000000000000000000000000000000000000000000000000000000000000000000000000000000000000000000000000000000000000000                          0000000000                                                                  000003
1024745815300014000000060237401651994                         000000004164316197370000000000000000000000000602281119000532421900000000416431619737031219000000004161923704400  000000000000000000000000000000000000000000000000000000000000000000000000000000000000000000000000000000000000000000000                          0000000000                                                                  000004
1024745815300014000000060237401651994                         000000004164316197450000000000000000000000000602281119000532307700000000416431619745101219000000005818823704400  000000000000000000000000000000000000000000000000000000000000000000000000000000000000000000000000000000000000000000000                          0000000000                                                                  000005
1024745815300014000000060237401651994                         000000004164316197530000000000000000000000000602281119002003748900000000416431619753101219000000003675123704422  000000000000000000000000000000000000000000000000000000000000000000000000000000000000000000000000000000000000000000000                          0000000000                                                                  000006
1024745815300014000000060237401651994                         000000004164316197610000000000000000000000000602281119002008287000000000416431619761291119000000043438123700321  000000000000000000000000000000000000000000000000000000000000000000000000000000000000000000000000000000000000000000000                          0000000000                                                                  000007
1024745815300014000000060237401651994                         0000000041643161977P000000000000000000000000060228111900200828700000000041643161977P291119000000043438123700321  000000000000000000000000000000000000000000000000000000000000000000000000000000000000000000000000000000000000000000000                          0000000000                                                                  000008
1024745815300014000000060237401651994                         000000004164316197880000000000000000000000000602281119000273986900000000416431619788101219000000002460823704422  000000000000000000000000000000000000000000000000000000000000000000000000000000000000000000000000000000000000000000000                          0000000000                                                                  000009
1024745815300014000000060237401651994                         000000004164316197960000000000000000000000000602281119000277253200000000416431619796101219000000004119123704422  000000000000000000000000000000000000000000000000000000000000000000000000000000000000000000000000000000000000000000000                          0000000000                                                                  000010
1024745815300014000000060237401651994                         0000000041643161980P000000000000000000000000060228111900200828700000000041643161980P291119000000043438123700321  000000000000000000000000000000000000000000000000000000000000000000000000000000000000000000000000000000000000000000000                          0000000000                                                                  000011
1024745815300014000000060237401651994                         000000004164316198180000000000000000000000000602281119002008287000000000416431619818291119000000043438123700321  000000000000000000000000000000000000000000000000000000000000000000000000000000000000000000000000000000000000000000000                          0000000000                                                                  000012
1024745815300014000000060237401651994                         000000004164316198260000000000000000000000000602281119002005653400000000416431619826201219000000001458923704152  000000000000000000000000000000000000000000000000000000000000000000000000000000000000000000000000000000000000000000000                          0000000000                                                                  000013
1024745815300014000000060237401651994                         000000004164316198340000000000000000000000000602281119002009347400000000416431619834021219000000004200623700073  000000000000000000000000000000000000000000000000000000000000000000000000000000000000000000000000000000000000000000000                          0000000000                                                                  000014
1024745815300014000000060237401651994                         000000004164316198420000000000000000000000000602281119000531580200000000416431619842021219000000002690923704152  000000000000000000000000000000000000000000000000000000000000000000000000000000000000000000000000000000000000000000000                          0000000000                                                                  000015
1024745815300014000000060237401651994                         000000004164316198500000000000000000000000000602281119000269443900000000416431619850021219000000002277623704152  000000000000000000000000000000000000000000000000000000000000000000000000000000000000000000000000000000000000000000000                          0000000000                                                                  000016
1024745815300014000000060237401651994                         000000004164316198690000000000000000000000000602281119000283727600000000416431619869201219000000002215223702397  000000000000000000000000000000000000000000000000000000000000000000000000000000000000000000000000000000000000000000000                          0000000000                                                                  000017
1024745815300014000000060237401651994                         000000004164316198770000000000000000000000000602281119002006953900000000416431619877021219000000003892523704152  000000000000000000000000000000000000000000000000000000000000000000000000000000000000000000000000000000000000000000000                          0000000000                                                                  000018
1024745815300014000000060237401651994                         000000004164316198850000000000000000000000000602281119002008090100000000416431619885021219000000005010123704602  000000000000000000000000000000000000000000000000000000000000000000000000000000000000000000000000000000000000000000000                          0000000000                                                                  000019
1024745815300014000000060237401651994                         000000004164316198930000000000000000000000000602281119000279521700000000416431619893101219000000001544423704422  000000000000000000000000000000000000000000000000000000000000000000000000000000000000000000000000000000000000000000000                          0000000000                                                                  000020
1024745815300014000000060237401651994                         000000004164316199070000000000000000000000000602281119000269550800000000416431619907101219000000002631723704151  000000000000000000000000000000000000000000000000000000000000000000000000000000000000000000000000000000000000000000000                          0000000000                                                                  000021
1024745815300014000000060237401651994                         000000004164316199230000000000000000000000000602281119002003854500000000416431619923101219000000005327823704151  000000000000000000000000000000000000000000000000000000000000000000000000000000000000000000000000000000000000000000000                          0000000000                                                                  000022
1024745815300014000000060237401651994                         000000004164316199310000000000000000000000000602281119002004034500000000416431619931201219000000004996223704152  000000000000000000000000000000000000000000000000000000000000000000000000000000000000000000000000000000000000000000000                          0000000000                                                                  000023
1024745815300014000000060237401651994                         0000000041643161994P000000000000000000000000060228111900053242210000000041643161994P031219000000003174423704152  000000000000000000000000000000000000000000000000000000000000000000000000000000000000000000000000000000000000000000000                          0000000000                                                                  000024
1024745815300014000000060237401651994                         000000004164316199580000000000000000000000000602281119002009550600000000416431619958201219000000004197223704154  000000000000000000000000000000000000000000000000000000000000000000000000000000000000000000000000000000000000000000000                          0000000000                                                                  000025
1024745815300014000000060237401651994                         000000004164316199660000000000000000000000000602281119002001253300000000416431619966021219000000002244423700073  000000000000000000000000000000000000000000000000000000000000000000000000000000000000000000000000000000000000000000000                          0000000000                                                                  000026
1024745815300014000000060237401651994                         000000004164316199820000000000000000000000000602281119002007900700000000416431619982021219000000002605523704422  000000000000000000000000000000000000000000000000000000000000000000000000000000000000000000000000000000000000000000000                          0000000000                                                                  000027
1024745815300014000000060237401651994                         000000004164316199900000000000000000000000000602281119002006641900000000416431619990101219000000003513023704400  000000000000000000000000000000000000000000000000000000000000000000000000000000000000000000000000000000000000000000000                          0000000000                                                                  000028
1024745815300014000000060237401651994                         000000004164316200180000000000000000000000000602281119000253463300000000416431620018101219000000001978623700321  000000000000000000000000000000000000000000000000000000000000000000000000000000000000000000000000000000000000000000000                          0000000000                                                                  000029
1024745815300014000000060237401651994                         000000004164316200260000000000000000000000000602281119000271188000000000416431620026021219000000003674323700408  000000000000000000000000000000000000000000000000000000000000000000000000000000000000000000000000000000000000000000000                          0000000000                                                                  000030
1024745815300014000000060237401651994                         000000004164316200340000000000000000000000000602281119002002288600000000416431620034201219000000001782723704151  000000000000000000000000000000000000000000000000000000000000000000000000000000000000000000000000000000000000000000000                          0000000000                                                                  000031
1024745815300014000000060237401651994                         000000004164316200420000000000000000000000000602281119000279525300000000416431620042021219000000004006523704400  000000000000000000000000000000000000000000000000000000000000000000000000000000000000000000000000000000000000000000000                          0000000000                                                                  000032
1024745815300014000000060237401651994                         000000004164316200500000000000000000000000000602281119000257635500000000416431620050101219000000002643623700522  000000000000000000000000000000000000000000000000000000000000000000000000000000000000000000000000000000000000000000000                          0000000000                                                                  000033
1024745815300014000000060237401651994                         000000004164316200690000000000000000000000000602281119002005015900000000416431620069101219000000003830423703109  000000000000000000000000000000000000000000000000000000000000000000000000000000000000000000000000000000000000000000000                          0000000000                                                                  000034
1024745815300014000000060237401651994                         000000004164316200770000000000000000000000000602281119002001975300000000416431620077021219000000001762923704422  000000000000000000000000000000000000000000000000000000000000000000000000000000000000000000000000000000000000000000000                          0000000000                                                                  000035
1024745815300014000000060237401651994                         000000004164316200850000000000000000000000000602281119002010614400000000416431620085021219000000011585423704159  000000000000000000000000000000000000000000000000000000000000000000000000000000000000000000000000000000000000000000000                          0000000000                                                                  000036
1024745815300014000000060237401651994                         000000004164316200930000000000000000000000000602281119002002644600000000416431620093021219000000000389523704422  000000000000000000000000000000000000000000000000000000000000000000000000000000000000000000000000000000000000000000000                          0000000000                                                                  000037
1024745815300014000000060237401651994                         000000004164316201070000000000000000000000000602281119002010606100000000416431620107021219000000003336623700389  000000000000000000000000000000000000000000000000000000000000000000000000000000000000000000000000000000000000000000000                          0000000000                                                                  000038
1024745815300014000000060237401651994                         000000004164316201150000000000000000000000000602281119000272589200000000416431620115021219000000004573023704152  000000000000000000000000000000000000000000000000000000000000000000000000000000000000000000000000000000000000000000000                          0000000000                                                                  000039
1024745815300014000000060237401651994                         000000004164316201230000000000000000000000000602281119000279414200000000416431620123021219000000004023523704422  000000000000000000000000000000000000000000000000000000000000000000000000000000000000000000000000000000000000000000000                          0000000000                                                                  000040
1024745815300014000000060237401651994                         000000004164316201310000000000000000000000000602281119001003054600000000416431620131291119000000111738623700408  000000000000000000000000000000000000000000000000000000000000000000000000000000000000000000000000000000000000000000000                          0000000000                                                                  000041
1024745815300014000000060237401651994                         0000000041643162014P000000000000000000000000060228111900100498550000000041643162014P201219000000002742123700522  000000000000000000000000000000000000000000000000000000000000000000000000000000000000000000000000000000000000000000000                          0000000000                                                                  000042
1024745815300014000000060237401651994                         000000004164316201580000000000000000000000000602281119000272033100000000416431620158021219000000003532023703109  000000000000000000000000000000000000000000000000000000000000000000000000000000000000000000000000000000000000000000000                          0000000000                                                                  000043
1024745815300014000000060237401651994                         000000004164316201660000000000000000000000000602281119002008920200000000416431620166201219000000002742123704400  000000000000000000000000000000000000000000000000000000000000000000000000000000000000000000000000000000000000000000000                          0000000000                                                                  000044
1024745815300014000000060237401651994                         000000004164316201740000000000000000000000000602281119000257237400000000416431620174021219000000003172823704400  000000000000000000000000000000000000000000000000000000000000000000000000000000000000000000000000000000000000000000000                          0000000000                                                                  000045
1024745815300014000000060237401651994                         000000004164316201820000000000000000000000000602281119000532382700000000416431620182101219000000002701423704143  000000000000000000000000000000000000000000000000000000000000000000000000000000000000000000000000000000000000000000000                          0000000000                                                                  000046
1024745815300014000000060237401651994                         000000004164316201900000000000000000000000000602281119002010615900000000416431620190031219000000013210323704159  000000000000000000000000000000000000000000000000000000000000000000000000000000000000000000000000000000000000000000000                          0000000000                                                                  000047
1024745815300014000000060237401651994                         000000004164316202040000000000000000000000000602281119002002188600000000416431620204021219000000004506123700073  000000000000000000000000000000000000000000000000000000000000000000000000000000000000000000000000000000000000000000000                          0000000000                                                                  000048
1024745815300014000000060237401651994                         000000004164316202120000000000000000000000000602281119000258824100000000416431620212021219000000004072923704151  000000000000000000000000000000000000000000000000000000000000000000000000000000000000000000000000000000000000000000000                          0000000000                                                                  000049
1024745815300014000000060237401651994                         000000004164316202200000000000000000000000000602281119002005325700000000416431620220021219000000006178523700408  000000000000000000000000000000000000000000000000000000000000000000000000000000000000000000000000000000000000000000000                          0000000000                                                                  000050
1024745815300014000000060237401651994                         000000004164316202390000000000000000000000000602281119002008949100000000416431620239021219000000004506123702397  000000000000000000000000000000000000000000000000000000000000000000000000000000000000000000000000000000000000000000000                          0000000000                                                                  000051
1024745815300014000000060237401651994                         000000004164316202470000000000000000000000000602281119002010234700000000416431620247291119000000134337423704436  000000000000000000000000000000000000000000000000000000000000000000000000000000000000000000000000000000000000000000000                          0000000000                                                                  000052
1024745815300014000000060237401651994                         000000004164316202550000000000000000000000000602281119002010234700000000416431620255291119000000134337423704436  000000000000000000000000000000000000000000000000000000000000000000000000000000000000000000000000000000000000000000000                          0000000000                                                                  000053
1024745815300014000000060237401651994                         000000004164316202630000000000000000000000000602281119000270560700000000416431620263021219000000004896923704422  000000000000000000000000000000000000000000000000000000000000000000000000000000000000000000000000000000000000000000000                          0000000000                                                                  000054
1024745815300014000000060237401651994                         000000004164316202710000000000000000000000000602281119002010234700000000416431620271291119000000134337423704436  000000000000000000000000000000000000000000000000000000000000000000000000000000000000000000000000000000000000000000000                          0000000000                                                                  000055
1024745815300014000000060237401651994                         0000000041643162028P000000000000000000000000060228111900200436610000000041643162028P101219000000002380023704452  000000000000000000000000000000000000000000000000000000000000000000000000000000000000000000000000000000000000000000000                          0000000000                                                                  000056
1024745815300014000000060237401651994                         000000004164316202980000000000000000000000000602281119002010254000000000416431620298291119000000086562223700408  000000000000000000000000000000000000000000000000000000000000000000000000000000000000000000000000000000000000000000000                          0000000000                                                                  000057
1024745815300014000000060237401651994                         000000004164316203010000000000000000000000000602281119002003493800000000416431620301021219000000001990423704400  000000000000000000000000000000000000000000000000000000000000000000000000000000000000000000000000000000000000000000000                          0000000000                                                                  000058
1024745815300014000000060237401651994                         0000000041643162031P000000000000000000000000060228111900100076520000000041643162031P021219000000003734923704143  000000000000000000000000000000000000000000000000000000000000000000000000000000000000000000000000000000000000000000000                          0000000000                                                                  000059
1024745815300014000000060237401651994                         000000004164316203280000000000000000000000000602281119002010329300000000416431620328291119000000102483223700408  000000000000000000000000000000000000000000000000000000000000000000000000000000000000000000000000000000000000000000000                          0000000000                                                                  000060
1024745815300014000000060237401651994                         000000004164316203360000000000000000000000000602281119002005288000000000416431620336021219000000003970323702374  000000000000000000000000000000000000000000000000000000000000000000000000000000000000000000000000000000000000000000000                          0000000000                                                                  000061
1024745815300014000000060237401651994                         000000004164316203440000000000000000000000000602281119002005288000000000416431620344201219000000003906223702374  000000000000000000000000000000000000000000000000000000000000000000000000000000000000000000000000000000000000000000000                          0000000000                                                                  000062
1024745815300014000000060237401651994                         000000004164316203520000000000000000000000000602281119002005288000000000416431620352200120000000003861323702374  000000000000000000000000000000000000000000000000000000000000000000000000000000000000000000000000000000000000000000000                          0000000000                                                                  000063
1024745815300014000000060237401651994                         000000004164316203600000000000000000000000000602281119002009677100000000416431620360281119000000061430823704422  000000000000000000000000000000000000000000000000000000000000000000000000000000000000000000000000000000000000000000000                          0000000000                                                                  000064
1024745815300014000000060237401651994                         000000004164316203790000000000000000000000000602281119001003549100000000416431620379021219000000001479923700321  000000000000000000000000000000000000000000000000000000000000000000000000000000000000000000000000000000000000000000000                          0000000000                                                                  000065
1024745815300014000000060237401651994                         000000004164316203870000000000000000000000000602281119002008831500000000416431620387291119000000066225423704422  000000000000000000000000000000000000000000000000000000000000000000000000000000000000000000000000000000000000000000000                          0000000000                                                                  000066
1024745815300014000000060237401651994                         000000004164316203950000000000000000000000000602281119001005567500000000416431620395021219000000004044723700427  000000000000000000000000000000000000000000000000000000000000000000000000000000000000000000000000000000000000000000000                          0000000000                                                                  000067
1024745815300014000000060237401651994                         000000004164316204090000000000000000000000000602281119001004645000000000416431620409021219000000006527123702374  000000000000000000000000000000000000000000000000000000000000000000000000000000000000000000000000000000000000000000000                          0000000000                                                                  000068
1024745815300014000000060237401651994                         000000004164316204170000000000000000000000000602281119001004645200000000416431620417021219000000001914223704602  000000000000000000000000000000000000000000000000000000000000000000000000000000000000000000000000000000000000000000000                          0000000000                                                                  000069
1024745815300014000000060237401651994                         000000004164316204250000000000000000000000000602281119002002701600000000416431620425101219000000004350423704159  000000000000000000000000000000000000000000000000000000000000000000000000000000000000000000000000000000000000000000000                          0000000000                                                                  000070
1024745815300014000000060237401651994                         000000004164316204330000000000000000000000000602281119001005432800000000416431620433291119000000209898523704159  000000000000000000000000000000000000000000000000000000000000000000000000000000000000000000000000000000000000000000000                          0000000000                                                                  000071
1024745815300014000000060237401651994                         000000004164316204410000000000000000000000000602281119002009390500000000416431620441291119000000019782723702374  000000000000000000000000000000000000000000000000000000000000000000000000000000000000000000000000000000000000000000000                          0000000000                                                                  000072
1024745815300014000000060237401651994                         0000000041643162045P000000000000000000000000060228111900200098370000000041643162045P101219000000002546723700153  000000000000000000000000000000000000000000000000000000000000000000000000000000000000000000000000000000000000000000000                          0000000000                                                                  000073
1024745815300014000000060237401651994                         000000004164316204680000000000000000000000000602281119002007053000000000416431620468021219000000006437123704436  000000000000000000000000000000000000000000000000000000000000000000000000000000000000000000000000000000000000000000000                          0000000000                                                                  000074
1024745815300014000000060237401651994                         000000004164316204760000000000000000000000000602281119000262752600000000416431620476021219000000001314523704143  000000000000000000000000000000000000000000000000000000000000000000000000000000000000000000000000000000000000000000000                          0000000000                                                                  000075
1024745815300014000000060237401651994                         000000004164316204840000000000000000000000000602281119002010616000000000416431620484031219000000006492223704436  000000000000000000000000000000000000000000000000000000000000000000000000000000000000000000000000000000000000000000000                          0000000000                                                                  000076
1024745815300014000000060237401651994                         000000004164316204920000000000000000000000000602281119000279071900000000416431620492201219000000006126423704154  000000000000000000000000000000000000000000000000000000000000000000000000000000000000000000000000000000000000000000000                          0000000000                                                                  000077
1024745815300014000000060237401651994                         000000004164316205060000000000000000000000000602281119002009768800000000416431620506101219000000005215923704147  000000000000000000000000000000000000000000000000000000000000000000000000000000000000000000000000000000000000000000000                          0000000000                                                                  000078
1024745815300014000000060237401651994                         000000004164316205140000000000000000000000000602281119002010616100000000416431620514031219000000006492223704436  000000000000000000000000000000000000000000000000000000000000000000000000000000000000000000000000000000000000000000000                          0000000000                                                                  000079
1024745815300014000000060237401651994                         000000004164316205220000000000000000000000000602281119002010616200000000416431620522031219000000006492223704436  000000000000000000000000000000000000000000000000000000000000000000000000000000000000000000000000000000000000000000000                          0000000000                                                                  000080
1024745815300014000000060237401651994                         000000004164316205300000000000000000000000000602281119000267545500000000416431620530021219000000007907323704143  000000000000000000000000000000000000000000000000000000000000000000000000000000000000000000000000000000000000000000000                          0000000000                                                                  000081
1024745815300014000000060237401651994                         000000004164316205490000000000000000000000000602281119001003698300000000416431620549021219000000006754523703109  000000000000000000000000000000000000000000000000000000000000000000000000000000000000000000000000000000000000000000000                          0000000000                                                                  000082
1024745815300014000000060237401651994                         000000004164316205570000000000000000000000000602281119002010616300000000416431620557031219000000006492223704436  000000000000000000000000000000000000000000000000000000000000000000000000000000000000000000000000000000000000000000000                          0000000000                                                                  000083
1024745815300014000000060237401651994                         000000004164316205650000000000000000000000000602281119001003698300000000416431620565201219000000006557723703109  000000000000000000000000000000000000000000000000000000000000000000000000000000000000000000000000000000000000000000000                          0000000000                                                                  000084
1024745815300014000000060237401651994                         000000004164316205810000000000000000000000000602281119000245920200000000416431620581021219000000001863223704152  000000000000000000000000000000000000000000000000000000000000000000000000000000000000000000000000000000000000000000000                          0000000000                                                                  000085
1024745815300014000000060237401651994                         0000000041643162059P000000000000000000000000060228111900027723640000000041643162059P091219000000003952223700408  000000000000000000000000000000000000000000000000000000000000000000000000000000000000000000000000000000000000000000000                          0000000000                                                                  000086
1024745815300014000000060237401651994                         000000004164316206030000000000000000000000000602281119001005796500000000416431620603291119000000033646923704159  000000000000000000000000000000000000000000000000000000000000000000000000000000000000000000000000000000000000000000000                          0000000000                                                                  000087
1024745815300014000000060237401651994                         000000004164316206110000000000000000000000000602281119000283523100000000416431620611021219000000005052523700405  000000000000000000000000000000000000000000000000000000000000000000000000000000000000000000000000000000000000000000000                          0000000000                                                                  000088
1024745815300014000000060237401651994                         0000000041643162062P000000000000000000000000060228111900201028020000000041643162062P201219000000001936423700153  000000000000000000000000000000000000000000000000000000000000000000000000000000000000000000000000000000000000000000000                          0000000000                                                                  000089
1024745815300014000000060237401651994                         000000004164316206460000000000000000000000000602281119002004648100000000416431620646021219000000006088723704151  000000000000000000000000000000000000000000000000000000000000000000000000000000000000000000000000000000000000000000000                          0000000000                                                                  000090
1024745815300014000000060237401651994                         000000004164316206620000000000000000000000000602281119001005132900000000416431620662291119000000042600323700321  000000000000000000000000000000000000000000000000000000000000000000000000000000000000000000000000000000000000000000000                          0000000000                                                                  000091
1024745815300014000000060237401651994                         000000004164316206700000000000000000000000000602281119002004501500000000416431620670201219000000002215223703109  000000000000000000000000000000000000000000000000000000000000000000000000000000000000000000000000000000000000000000000                          0000000000                                                                  000092
1024745815300014000000060237401651994                         000000004164316206890000000000000000000000000602281119002001320100000000416431620689021219000000002460123704452  000000000000000000000000000000000000000000000000000000000000000000000000000000000000000000000000000000000000000000000                          0000000000                                                                  000093
1024745815300014000000060237401651994                         000000004164316206970000000000000000000000000602281119002008429300000000416431620697021219000000002701023703162  000000000000000000000000000000000000000000000000000000000000000000000000000000000000000000000000000000000000000000000                          0000000000                                                                  000094
1024745815300014000000060237401651994                         000000004164316207000000000000000000000000000602281119001005694900000000416431620700031219000000006814723700523  000000000000000000000000000000000000000000000000000000000000000000000000000000000000000000000000000000000000000000000                          0000000000                                                                  000095
1024745815300014000000060237401651994                         000000004164316207270000000000000000000000000602281119002004635900000000416431620727021219000000006634123704152  000000000000000000000000000000000000000000000000000000000000000000000000000000000000000000000000000000000000000000000                          0000000000                                                                  000096
1024745815300014000000060237401651994                         000000004164316207350000000000000000000000000602281119002000683100000000416431620735021219000000004302123700408  000000000000000000000000000000000000000000000000000000000000000000000000000000000000000000000000000000000000000000000                          0000000000                                                                  000097
1024745815300014000000060237401651994                         000000004164316207430000000000000000000000000602281119002010616400000000416431620743031219000000016641223700408  000000000000000000000000000000000000000000000000000000000000000000000000000000000000000000000000000000000000000000000                          0000000000                                                                  000098
1024745815300014000000060237401651994                         000000004164316207510000000000000000000000000602281119000531915500000000416431620751291119000000049999723704151  000000000000000000000000000000000000000000000000000000000000000000000000000000000000000000000000000000000000000000000                          0000000000                                                                  000099
1024745815300014000000060237401651994                         0000000041643162076P000000000000000000000000060228111900201061650000000041643162076P031219000000004065623700408  000000000000000000000000000000000000000000000000000000000000000000000000000000000000000000000000000000000000000000000                          0000000000                                                                  000100
1024745815300014000000060237401651994                         000000004164316207780000000000000000000000000602281119002001474400000000416431620778021219000000004082423700408  000000000000000000000000000000000000000000000000000000000000000000000000000000000000000000000000000000000000000000000                          0000000000                                                                  000101
1024745815300014000000060237401651994                         000000004164316207860000000000000000000000000602281119000271511000000000416431620786021219000000002355723704602  000000000000000000000000000000000000000000000000000000000000000000000000000000000000000000000000000000000000000000000                          0000000000                                                                  000102
1024745815300014000000060237401651994                         000000004164316207940000000000000000000000000602281119000280231500000000416431620794021219000000002776623704424  000000000000000000000000000000000000000000000000000000000000000000000000000000000000000000000000000000000000000000000                          0000000000                                                                  000103
1024745815300014000000060237401651994                         000000004164316208080000000000000000000000000602281119002009704900000000416431620808291119000000138251223704422  000000000000000000000000000000000000000000000000000000000000000000000000000000000000000000000000000000000000000000000                          0000000000                                                                  000104
1024745815300014000000060237401651994                         000000004164316208160000000000000000000000000602281119002009196800000000416431620816100120000000001047123700405  000000000000000000000000000000000000000000000000000000000000000000000000000000000000000000000000000000000000000000000                          0000000000                                                                  000105
1024745815300014000000060237401651994                         000000004164316208240000000000000000000000000602281119002003134100000000416431620824021219000000004215123704424  000000000000000000000000000000000000000000000000000000000000000000000000000000000000000000000000000000000000000000000                          0000000000                                                                  000106
1024745815300014000000060237401651994                         000000004164316208320000000000000000000000000602281119002009196800000000416431620832100220000000001047123700405  000000000000000000000000000000000000000000000000000000000000000000000000000000000000000000000000000000000000000000000                          0000000000                                                                  000107
1024745815300014000000060237401651994                         000000004164316208400000000000000000000000000602281119002009196800000000416431620840100320000000001047123700405  000000000000000000000000000000000000000000000000000000000000000000000000000000000000000000000000000000000000000000000                          0000000000                                                                  000108
1024745815300014000000060237401651994                         000000004164316208590000000000000000000000000602281119000280231500000000416431620859201219000000002701323704424  000000000000000000000000000000000000000000000000000000000000000000000000000000000000000000000000000000000000000000000                          0000000000                                                                  000109
1024745815300014000000060237401651994                         000000004164316208670000000000000000000000000602281119000272253100000000416431620867281119000000003000023700140  000000000000000000000000000000000000000000000000000000000000000000000000000000000000000000000000000000000000000000000                          0000000000                                                                  000110
1024745815300014000000060237401651994                         000000004164316208750000000000000000000000000602281119002009888400000000416431620875021219000000003495923704602  000000000000000000000000000000000000000000000000000000000000000000000000000000000000000000000000000000000000000000000                          0000000000                                                                  000111
1024745815300014000000060237401651994                         000000004164316208830000000000000000000000000602281119002010033300000000416431620883101219000000006067923700408  000000000000000000000000000000000000000000000000000000000000000000000000000000000000000000000000000000000000000000000                          0000000000                                                                  000112
1024745815300014000000060237401651994                         000000004164316208910000000000000000000000000602281119000263103700000000416431620891021219000000005151123704422  000000000000000000000000000000000000000000000000000000000000000000000000000000000000000000000000000000000000000000000                          0000000000                                                                  000113
1024745815300014000000060237401651994                         000000004164316209050000000000000000000000000602281119000268171700000000416431620905021219000000003355123704151  000000000000000000000000000000000000000000000000000000000000000000000000000000000000000000000000000000000000000000000                          0000000000                                                                  000114
1024745815300014000000060237401651994                         000000004164316209130000000000000000000000000602281119002001725100000000416431620913021219000000001647323702397  000000000000000000000000000000000000000000000000000000000000000000000000000000000000000000000000000000000000000000000                          0000000000                                                                  000115
1024745815300014000000060237401651994                         000000004164316209210000000000000000000000000602281119000268478800000000416431620921021219000000008718823703109  000000000000000000000000000000000000000000000000000000000000000000000000000000000000000000000000000000000000000000000                          0000000000                                                                  000116
1024745815300014000000060237401651994                         0000000041643162093P000000000000000000000000060228111900201026140000000041643162093P291119000000181197423702374  000000000000000000000000000000000000000000000000000000000000000000000000000000000000000000000000000000000000000000000                          0000000000                                                                  000117
1024745815300014000000060237401651994                         000000004164316209480000000000000000000000000602281119001002798500000000416431620948021219000000002481523702374  000000000000000000000000000000000000000000000000000000000000000000000000000000000000000000000000000000000000000000000                          0000000000                                                                  000118
1024745815300014000000060237401651994                         000000004164316209560000000000000000000000000602281119002000064000000000416431620956201219000000003562523704452  000000000000000000000000000000000000000000000000000000000000000000000000000000000000000000000000000000000000000000000                          0000000000                                                                  000119
1024745815300014000000060237401651994                         000000004164316209640000000000000000000000000602281119002000550500000000416431620964021219000000005098523703109  000000000000000000000000000000000000000000000000000000000000000000000000000000000000000000000000000000000000000000000                          0000000000                                                                  000120
1024745815300014000000060237401651994                         000000004164316209720000000000000000000000000602281119002000550500000000416431620972101219000000004957223703109  000000000000000000000000000000000000000000000000000000000000000000000000000000000000000000000000000000000000000000000                          0000000000                                                                  000121
1024745815300014000000060237401651994                         000000004164316209800000000000000000000000000602281119002010124000000000416431620980101219000000005215923700408  000000000000000000000000000000000000000000000000000000000000000000000000000000000000000000000000000000000000000000000                          0000000000                                                                  000122
1024745815300014000000060237401651994                         000000004164316210060000000000000000000000000602281119002007360000000000416431621006021219000000005406123704143  000000000000000000000000000000000000000000000000000000000000000000000000000000000000000000000000000000000000000000000                          0000000000                                                                  000123
1024745815300014000000060237401651994                         000000004164316210140000000000000000000000000602281119002010237900000000416431621014101219000000006067923700408  000000000000000000000000000000000000000000000000000000000000000000000000000000000000000000000000000000000000000000000                          0000000000                                                                  000124
1024745815300014000000060237401651994                         000000004164316210220000000000000000000000000602281119002010616600000000416431621022031219000000003235023702397  000000000000000000000000000000000000000000000000000000000000000000000000000000000000000000000000000000000000000000000                          0000000000                                                                  000125
1024745815300014000000060237401651994                         000000004164316210300000000000000000000000000602281119000281829000000000416431621030201219000000016070323704144  000000000000000000000000000000000000000000000000000000000000000000000000000000000000000000000000000000000000000000000                          0000000000                                                                  000126
1024745815300014000000060237401651994                         000000004164316210490000000000000000000000000602281119000274310700000000416431621049101219000000002750423700408  000000000000000000000000000000000000000000000000000000000000000000000000000000000000000000000000000000000000000000000                          0000000000                                                                  000127
1024745815300014000000060237401651994                         000000004164316210570000000000000000000000000602281119002005559500000000416431621057021219000000002602923704422  000000000000000000000000000000000000000000000000000000000000000000000000000000000000000000000000000000000000000000000                          0000000000                                                                  000128
1024745815300014000000060237401651994                         000000004164316210650000000000000000000000000602281119000267490700000000416431621065101219000000004238023700073  000000000000000000000000000000000000000000000000000000000000000000000000000000000000000000000000000000000000000000000                          0000000000                                                                  000129
1024745815300014000000060237401651994                         000000004164316210730000000000000000000000000602281119000261057100000000416431621073101219000000002133923700073  000000000000000000000000000000000000000000000000000000000000000000000000000000000000000000000000000000000000000000000                          0000000000                                                                  000130
1024745815300014000000060237401651994                         000000004164316210810000000000000000000000000602281119002001816300000000416431621081021219000000005452423704400  000000000000000000000000000000000000000000000000000000000000000000000000000000000000000000000000000000000000000000000                          0000000000                                                                  000131
1024745815300014000000060237401651994                         0000000041643162109P000000000000000000000000060228111900201061670000000041643162109P031219000000003235023702397  000000000000000000000000000000000000000000000000000000000000000000000000000000000000000000000000000000000000000000000                          0000000000                                                                  000132
1024745815300014000000060237401651994                         000000004164316211030000000000000000000000000602281119002010616900000000416431621103031219000000001611223703162  000000000000000000000000000000000000000000000000000000000000000000000000000000000000000000000000000000000000000000000                          0000000000                                                                  000133
1024745815300014000000060237401651994                         000000004164316211110000000000000000000000000602281119000270516500000000416431621111021219000000003815823704422  000000000000000000000000000000000000000000000000000000000000000000000000000000000000000000000000000000000000000000000                          0000000000                                                                  000134
1024745815300014000000060237401651994                         0000000041643162112P000000000000000000000000060228111900200893630000000041643162112P021219000000013014723700408  000000000000000000000000000000000000000000000000000000000000000000000000000000000000000000000000000000000000000000000                          0000000000                                                                  000135
1024745815300014000000060237401651994                         000000004164316211380000000000000000000000000602281119000280093000000000416431621138101219000000002137123704147  000000000000000000000000000000000000000000000000000000000000000000000000000000000000000000000000000000000000000000000                          0000000000                                                                  000136
1024745815300014000000060237401651994                         000000004164316211460000000000000000000000000602281119001005277800000000416431621146031219000000001260523700389  000000000000000000000000000000000000000000000000000000000000000000000000000000000000000000000000000000000000000000000                          0000000000                                                                  000137
1024745815300014000000060237401651994                         000000004164316211540000000000000000000000000602281119001005807000000000416431621154031219000000001439823700321  000000000000000000000000000000000000000000000000000000000000000000000000000000000000000000000000000000000000000000000                          0000000000                                                                  000138
1024745815300014000000060237401651994                         000000004164316211620000000000000000000000000602281119000279528200000000416431621162021219000000002741323704400  000000000000000000000000000000000000000000000000000000000000000000000000000000000000000000000000000000000000000000000                          0000000000                                                                  000139
1024745815300014000000060237401651994                         000000004164316211700000000000000000000000000602281119002010617000000000416431621170031219000000002369423704400  000000000000000000000000000000000000000000000000000000000000000000000000000000000000000000000000000000000000000000000                          0000000000                                                                  000140
1024745815300014000000060237401651994                         000000004164316211890000000000000000000000000602281119002005400800000000416431621189021219000000004228623704144  000000000000000000000000000000000000000000000000000000000000000000000000000000000000000000000000000000000000000000000                          0000000000                                                                  000141
1024745815300014000000060237401651994                         000000004164316211970000000000000000000000000602281119000264103600000000416431621197291119000000047000123704151  000000000000000000000000000000000000000000000000000000000000000000000000000000000000000000000000000000000000000000000                          0000000000                                                                  000142
1024745815300014000000060237401651994                         000000004164316212000000000000000000000000000602281119000264103600000000416431621200291119000000047000123704151  000000000000000000000000000000000000000000000000000000000000000000000000000000000000000000000000000000000000000000000                          0000000000                                                                  000143
1024745815300014000000060237401651994                         000000004164316212190000000000000000000000000602281119000264103600000000416431621219291119000000047000123704151  000000000000000000000000000000000000000000000000000000000000000000000000000000000000000000000000000000000000000000000                          0000000000                                                                  000144
1024745815300014000000060237401651994                         000000004164316212270000000000000000000000000602281119002004034800000000416431621227101219000000002321423704422  000000000000000000000000000000000000000000000000000000000000000000000000000000000000000000000000000000000000000000000                          0000000000                                                                  000145
1024745815300014000000060237401651994                         000000004164316212350000000000000000000000000602281119000264103600000000416431621235291119000000047000123704151  000000000000000000000000000000000000000000000000000000000000000000000000000000000000000000000000000000000000000000000                          0000000000                                                                  000146
1024745815300014000000060237401651994                         000000004164316212430000000000000000000000000602281119000264103600000000416431621243291119000000047000123704151  000000000000000000000000000000000000000000000000000000000000000000000000000000000000000000000000000000000000000000000                          0000000000                                                                  000147
1024745815300014000000060237401651994                         000000004164316212510000000000000000000000000602281119000264103600000000416431621251291119000000047000123704151  000000000000000000000000000000000000000000000000000000000000000000000000000000000000000000000000000000000000000000000                          0000000000                                                                  000148
1024745815300014000000060237401651994                         0000000041643162126P000000000000000000000000060228111900200095890000000041643162126P101219000000005584923700408  000000000000000000000000000000000000000000000000000000000000000000000000000000000000000000000000000000000000000000000                          0000000000                                                                  000149
1024745815300014000000060237401651994                         000000004164316212780000000000000000000000000602281119000284845100000000416431621278031219000000004757123700140  000000000000000000000000000000000000000000000000000000000000000000000000000000000000000000000000000000000000000000000                          0000000000                                                                  000150
1024745815300014000000060237401651994                         000000004164316212860000000000000000000000000602281119001002401800000000416431621286281119000000021760623700153  000000000000000000000000000000000000000000000000000000000000000000000000000000000000000000000000000000000000000000000                          0000000000                                                                  000151
1024745815300014000000060237401651994                         000000004164316212940000000000000000000000000602281119000264160400000000416431621294281119000000044440123704424  000000000000000000000000000000000000000000000000000000000000000000000000000000000000000000000000000000000000000000000                          0000000000                                                                  000152
1024745815300014000000060237401651994                         000000004164316213080000000000000000000000000602281119000273105300000000416431621308021219000000002900823704422  000000000000000000000000000000000000000000000000000000000000000000000000000000000000000000000000000000000000000000000                          0000000000                                                                  000153
1024745815300014000000060237401651994                         000000004164316213160000000000000000000000000602281119000273105300000000416431621316201219000000002821823704422  000000000000000000000000000000000000000000000000000000000000000000000000000000000000000000000000000000000000000000000                          0000000000                                                                  000154
1024745815300014000000060237401651994                         000000004164316213240000000000000000000000000602281119000281962300000000416431621324021219000000003336623704151  000000000000000000000000000000000000000000000000000000000000000000000000000000000000000000000000000000000000000000000                          0000000000                                                                  000155
1024745815300014000000060237401651994                         000000004164316213320000000000000000000000000602281119000270070200000000416431621332201219000000001914223704151  000000000000000000000000000000000000000000000000000000000000000000000000000000000000000000000000000000000000000000000                          0000000000                                                                  000156
1024745815300014000000060237401651994                         000000004164316213400000000000000000000000000602281119000263824400000000416431621340101219000000004223223700321  000000000000000000000000000000000000000000000000000000000000000000000000000000000000000000000000000000000000000000000                          0000000000                                                                  000157
1024745815300014000000060237401651994                         000000004164316213590000000000000000000000000602281119000280404000000000416431621359021219000000003068023704400  000000000000000000000000000000000000000000000000000000000000000000000000000000000000000000000000000000000000000000000                          0000000000                                                                  000158
1024745815300014000000060237401651994                         000000004164316213750000000000000000000000000602281119002009374400000000416431621375101219000000006334623700140  000000000000000000000000000000000000000000000000000000000000000000000000000000000000000000000000000000000000000000000                          0000000000                                                                  000159
1024745815300014000000060237401651994                         000000004164316213830000000000000000000000000602281119000272092700000000416431621383101219000000003608823704436  000000000000000000000000000000000000000000000000000000000000000000000000000000000000000000000000000000000000000000000                          0000000000                                                                  000160
1024745815300014000000060237401651994                         000000004164316213910000000000000000000000000602281119000280404000000000416431621391201219000000002984123704400  000000000000000000000000000000000000000000000000000000000000000000000000000000000000000000000000000000000000000000000                          0000000000                                                                  000161
1024745815300014000000060237401651994                         000000004164316214050000000000000000000000000602281119002010617100000000416431621405031219000000004268523704152  000000000000000000000000000000000000000000000000000000000000000000000000000000000000000000000000000000000000000000000                          0000000000                                                                  000162
1024745815300014000000060237401651994                         000000004164316214210000000000000000000000000602281119002006795200000000416431621421021219000000003892523702374  000000000000000000000000000000000000000000000000000000000000000000000000000000000000000000000000000000000000000000000                          0000000000                                                                  000163
1024745815300014000000060237401651994                         0000000041643162143P000000000000000000000000060228111900028076840000000041643162143P291119000000033653523704424  000000000000000000000000000000000000000000000000000000000000000000000000000000000000000000000000000000000000000000000                          0000000000                                                                  000164
1024745815300014000000060237401651994                         000000004164316214480000000000000000000000000602281119002010617200000000416431621448031219000000019176223703109  000000000000000000000000000000000000000000000000000000000000000000000000000000000000000000000000000000000000000000000                          0000000000                                                                  000165
1024745815300014000000060237401651994                         000000004164316214560000000000000000000000000602281119000267818900000000416431621456101219000000001613323702374  000000000000000000000000000000000000000000000000000000000000000000000000000000000000000000000000000000000000000000000                          0000000000                                                                  000166
1024745815300014000000060237401651994                         000000004164316214640000000000000000000000000602281119002002983600000000416431621464101219000000004488323700408  000000000000000000000000000000000000000000000000000000000000000000000000000000000000000000000000000000000000000000000                          0000000000                                                                  000167
1024745815300014000000060237401651994                         000000004164316214720000000000000000000000000602281119000263824400000000416431621472101219000000003807923700321  000000000000000000000000000000000000000000000000000000000000000000000000000000000000000000000000000000000000000000000                          0000000000                                                                  000168
1024745815300014000000060237401651994                         000000004164316214800000000000000000000000000602281119000261224200000000416431621480101219000000003319423703109  000000000000000000000000000000000000000000000000000000000000000000000000000000000000000000000000000000000000000000000                          0000000000                                                                  000169
1024745815300014000000060237401651994                         000000004164316214990000000000000000000000000602281119000284346400000000416431621499021219000000003643423704424  000000000000000000000000000000000000000000000000000000000000000000000000000000000000000000000000000000000000000000000                          0000000000                                                                  000170
1024745815300014000000060237401651994                         000000004164316215020000000000000000000000000602281119000272253100000000416431621502281119000000005000023700140  000000000000000000000000000000000000000000000000000000000000000000000000000000000000000000000000000000000000000000000                          0000000000                                                                  000171
1024745815300014000000060237401651994                         000000004164316215100000000000000000000000000602281119002010617300000000416431621510031219000000006824323703109  000000000000000000000000000000000000000000000000000000000000000000000000000000000000000000000000000000000000000000000                          0000000000                                                                  000172
1024745815300014000000060237401651994                         000000004164316215290000000000000000000000000602281119002005535300000000416431621529021219000000004785723704152  000000000000000000000000000000000000000000000000000000000000000000000000000000000000000000000000000000000000000000000                          0000000000                                                                  000173
1024745815300014000000060237401651994                         000000004164316215370000000000000000000000000602281119000271766900000000416431621537101219000000002694423704151  000000000000000000000000000000000000000000000000000000000000000000000000000000000000000000000000000000000000000000000                          0000000000                                                                  000174
1024745815300014000000060237401651994                         000000004164316215450000000000000000000000000602281119002003167400000000416431621545101219000000004996223700408  000000000000000000000000000000000000000000000000000000000000000000000000000000000000000000000000000000000000000000000                          0000000000                                                                  000175
1024745815300014000000060237401651994                         000000004164316215530000000000000000000000000602281119002006254300000000416431621553021219000000001525623702374  000000000000000000000000000000000000000000000000000000000000000000000000000000000000000000000000000000000000000000000                          0000000000                                                                  000176
1024745815300014000000060237401651994                         000000004164316215610000000000000000000000000602281119002001406000000000416431621561021219000000002734823704422  000000000000000000000000000000000000000000000000000000000000000000000000000000000000000000000000000000000000000000000                          0000000000                                                                  000177
1024745815300014000000060237401651994                         0000000041643162157P000000000000000000000000060228111900200851120000000041643162157P021219000000009486023704428  000000000000000000000000000000000000000000000000000000000000000000000000000000000000000000000000000000000000000000000                          0000000000                                                                  000178
1024745815300014000000060237401651994                         000000004164316215880000000000000000000000000602281119000257543400000000416431621588021219000000007617123700153  000000000000000000000000000000000000000000000000000000000000000000000000000000000000000000000000000000000000000000000                          0000000000                                                                  000179
1024745815300014000000060237401651994                         000000004164316215960000000000000000000000000602281119002003258900000000416431621596021219000000001897723700408  000000000000000000000000000000000000000000000000000000000000000000000000000000000000000000000000000000000000000000000                          0000000000                                                                  000180
1024745815300014000000060237401651994                         0000000041643162160P000000000000000000000000060228111900200398030000000041643162160P101219000000004931023700408  000000000000000000000000000000000000000000000000000000000000000000000000000000000000000000000000000000000000000000000                          0000000000                                                                  000181
1024745815300014000000060237401651994                         000000004164316216180000000000000000000000000602281119000266766700000000416431621618021219000000001460823700153  000000000000000000000000000000000000000000000000000000000000000000000000000000000000000000000000000000000000000000000                          0000000000                                                                  000182
1024745815300014000000060237401651994                         000000004164316216260000000000000000000000000602281119002008668100000000416431621626021219000000002647023704602  000000000000000000000000000000000000000000000000000000000000000000000000000000000000000000000000000000000000000000000                          0000000000                                                                  000183
1024745815300014000000060237401651994                         000000004164316216340000000000000000000000000602281119001005807100000000416431621634031219000000004266823700321  000000000000000000000000000000000000000000000000000000000000000000000000000000000000000000000000000000000000000000000                          0000000000                                                                  000184
1024745815300014000000060237401651994                         000000004164316216420000000000000000000000000602281119001005766200000000416431621642031219000000009928223704152  000000000000000000000000000000000000000000000000000000000000000000000000000000000000000000000000000000000000000000000                          0000000000                                                                  000185
1024745815300014000000060237401651994                         000000004164316216500000000000000000000000000602281119002010617400000000416431621650031219000000003347823700321  000000000000000000000000000000000000000000000000000000000000000000000000000000000000000000000000000000000000000000000                          0000000000                                                                  000186
1024745815300014000000060237401651994                         000000004164316216690000000000000000000000000602281119000275032100000000416431621669101219000000002696523700153  000000000000000000000000000000000000000000000000000000000000000000000000000000000000000000000000000000000000000000000                          0000000000                                                                  000187
1024745815300014000000060237401651994                         000000004164316216770000000000000000000000000602281119002004055200000000416431621677101219000000005068923700408  000000000000000000000000000000000000000000000000000000000000000000000000000000000000000000000000000000000000000000000                          0000000000                                                                  000188
1024745815300014000000060237401651994                         000000004164316216850000000000000000000000000602281119002010362700000000416431621685201219000000001666423704422  000000000000000000000000000000000000000000000000000000000000000000000000000000000000000000000000000000000000000000000                          0000000000                                                                  000189
1024745815300014000000060237401651994                         000000004164316216930000000000000000000000000602281119000279360300000000416431621693101219000000001899023704144  000000000000000000000000000000000000000000000000000000000000000000000000000000000000000000000000000000000000000000000                          0000000000                                                                  000190
1024745815300014000000060237401651994                         000000004164316217070000000000000000000000000602281119000271902100000000416431621707101219000000001210123700408  000000000000000000000000000000000000000000000000000000000000000000000000000000000000000000000000000000000000000000000                          0000000000                                                                  000191
1024745815300014000000060237401651994                         000000004164316217150000000000000000000000000602281119000268150400000000416431621715021219000000002959223704144  000000000000000000000000000000000000000000000000000000000000000000000000000000000000000000000000000000000000000000000                          0000000000                                                                  000192
1024745815300014000000060237401651994                         000000004164316217230000000000000000000000000602281119000254626900000000416431621723101219000000002120823703109  000000000000000000000000000000000000000000000000000000000000000000000000000000000000000000000000000000000000000000000                          0000000000                                                                  000193
1024745815300014000000060237401651994                         000000004164316217310000000000000000000000000602281119002005296500000000416431621731101219000000004760923702374  000000000000000000000000000000000000000000000000000000000000000000000000000000000000000000000000000000000000000000000                          0000000000                                                                  000194
1024745815300014000000060237401651994                         0000000041643162174P000000000000000000000000060228111900025417110000000041643162174P021219000000005395123703109  000000000000000000000000000000000000000000000000000000000000000000000000000000000000000000000000000000000000000000000                          0000000000                                                                  000195
1024745815300014000000060237401651994                         000000004164316217660000000000000000000000000602281119002008825400000000416431621766281119000000004683023704151  000000000000000000000000000000000000000000000000000000000000000000000000000000000000000000000000000000000000000000000                          0000000000                                                                  000196
1024745815300014000000060237401651994                         000000004164316217740000000000000000000000000602281119000267180100000000416431621774281119000000005801123700320  000000000000000000000000000000000000000000000000000000000000000000000000000000000000000000000000000000000000000000000                          0000000000                                                                  000197
1024745815300014000000060237401651994                         000000004164316217820000000000000000000000000602281119000268559300000000416431621782291119000000046822023704436  000000000000000000000000000000000000000000000000000000000000000000000000000000000000000000000000000000000000000000000                          0000000000                                                                  000198
1024745815300014000000060237401651994                         000000004164316217900000000000000000000000000602281119000532355100000000416431621790201219000000004161923704143  000000000000000000000000000000000000000000000000000000000000000000000000000000000000000000000000000000000000000000000                          0000000000                                                                  000199
1024745815300014000000060237401651994                         000000004164316218040000000000000000000000000602281119000278697100000000416431621804291119000000103593823704143  000000000000000000000000000000000000000000000000000000000000000000000000000000000000000000000000000000000000000000000                          0000000000                                                                  000200
1024745815300014000000060237401651994                         000000004164316218120000000000000000000000000602281119002004915100000000416431621812281119000000009412523704151  000000000000000000000000000000000000000000000000000000000000000000000000000000000000000000000000000000000000000000000                          0000000000                                                                  000201
1024745815300014000000060237401651994                         000000004164316218200000000000000000000000000602281119001001643000000000416431621820021219000000002004523704400  000000000000000000000000000000000000000000000000000000000000000000000000000000000000000000000000000000000000000000000                          0000000000                                                                  000202
1024745815300014000000060237401651994                         000000004164316218390000000000000000000000000602281119000276575400000000416431621839201219000000006772923704274  000000000000000000000000000000000000000000000000000000000000000000000000000000000000000000000000000000000000000000000                          0000000000                                                                  000203
1024745815300014000000060237401651994                         000000004164316218470000000000000000000000000602281119002003685800000000416431621847021219000000002577623703109  000000000000000000000000000000000000000000000000000000000000000000000000000000000000000000000000000000000000000000000                          0000000000                                                                  000204
1024745815300014000000060237401651994                         000000004164316218550000000000000000000000000602281119000272155100000000416431621855101219000000003186423700153  000000000000000000000000000000000000000000000000000000000000000000000000000000000000000000000000000000000000000000000                          0000000000                                                                  000205
1024745815300014000000060237401651994                         000000004164316218710000000000000000000000000602281119002008461300000000416431621871291119000000499824923700408  000000000000000000000000000000000000000000000000000000000000000000000000000000000000000000000000000000000000000000000                          0000000000                                                                  000206
1024745815300014000000060237401651994                         0000000041643162188P000000000000000000000000060228111900200862480000000041643162188P101219000000002481123702374  000000000000000000000000000000000000000000000000000000000000000000000000000000000000000000000000000000000000000000000                          0000000000                                                                  000207
1024745815300014000000060237401651994                         000000004164316218980000000000000000000000000602281119002010617500000000416431621898031219000000003513023703109  000000000000000000000000000000000000000000000000000000000000000000000000000000000000000000000000000000000000000000000                          0000000000                                                                  000208
1024745815300014000000060237401651994                         000000004164316219010000000000000000000000000602281119000279817900000000416431621901291119000000131609023704422  000000000000000000000000000000000000000000000000000000000000000000000000000000000000000000000000000000000000000000000                          0000000000                                                                  000209
1024745815300014000000060237401651994                         0000000041643162191P000000000000000000000000060228111900201061760000000041643162191P031219000000002892823704424  000000000000000000000000000000000000000000000000000000000000000000000000000000000000000000000000000000000000000000000                          0000000000                                                                  000210
1024745815300014000000060237401651994                         000000004164316219280000000000000000000000000602281119002001921700000000416431621928021219000000001163023702397  000000000000000000000000000000000000000000000000000000000000000000000000000000000000000000000000000000000000000000000                          0000000000                                                                  000211
1024745815300014000000060237401651994                         000000004164316219360000000000000000000000000602281119000272456800000000416431621936021219000000005082423704147  000000000000000000000000000000000000000000000000000000000000000000000000000000000000000000000000000000000000000000000                          0000000000                                                                  000212
1024745815300014000000060237401651994                         000000004164316219440000000000000000000000000602281119002005648700000000416431621944101219000000004673723700408  000000000000000000000000000000000000000000000000000000000000000000000000000000000000000000000000000000000000000000000                          0000000000                                                                  000213
1024745815300014000000060237401651994                         000000004164316219520000000000000000000000000602281119001000386300000000416431621952101219000000003063323700153  000000000000000000000000000000000000000000000000000000000000000000000000000000000000000000000000000000000000000000000                          0000000000                                                                  000214
1024745815300014000000060237401651994                         000000004164316219790000000000000000000000000602281119000284264700000000416431621979021219000000010375623704157  000000000000000000000000000000000000000000000000000000000000000000000000000000000000000000000000000000000000000000000                          0000000000                                                                  000215
1024745815300014000000060237401651994                         000000004164316219870000000000000000000000000602281119000532243300000000416431621987021219000000001985423704400  000000000000000000000000000000000000000000000000000000000000000000000000000000000000000000000000000000000000000000000                          0000000000                                                                  000216
1024745815300014000000060237401651994                         000000004164316219950000000000000000000000000602281119002005773500000000416431621995101219000000004380823700408  000000000000000000000000000000000000000000000000000000000000000000000000000000000000000000000000000000000000000000000                          0000000000                                                                  000217
1024745815300014000000060237401651994                         000000004164316220100000000000000000000000000602281119001005099700000000416431622010291119000000135409223700320  000000000000000000000000000000000000000000000000000000000000000000000000000000000000000000000000000000000000000000000                          0000000000                                                                  000218
1024745815300014000000060237401651994                         000000004164316220290000000000000000000000000602281119000271503400000000416431622029101219000000003514623702374  000000000000000000000000000000000000000000000000000000000000000000000000000000000000000000000000000000000000000000000                          0000000000                                                                  000219
1024745815300014000000060237401651994                         000000004164316220370000000000000000000000000602281119000279817900000000416431622037201219000000003640123704422  000000000000000000000000000000000000000000000000000000000000000000000000000000000000000000000000000000000000000000000                          0000000000                                                                  000220
1024745815300014000000060237401651994                         000000004164316220450000000000000000000000000602281119000279418800000000416431622045291119000000200231623704424  000000000000000000000000000000000000000000000000000000000000000000000000000000000000000000000000000000000000000000000                          0000000000                                                                  000221
1024745815300014000000060237401651994                         000000004164316220530000000000000000000000000602281119000250336700000000416431622053021219000000002253823704602  000000000000000000000000000000000000000000000000000000000000000000000000000000000000000000000000000000000000000000000                          0000000000                                                                  000222
1024745815300014000000060237401651994                         000000004164316220610000000000000000000000000602281119002000420600000000416431622061281119000000090544323702397  000000000000000000000000000000000000000000000000000000000000000000000000000000000000000000000000000000000000000000000                          0000000000                                                                  000223
1024745815300014000000060237401651994                         0000000041643162207P000000000000000000000000060228111900201061770000000041643162207P031219000000003861423700321  000000000000000000000000000000000000000000000000000000000000000000000000000000000000000000000000000000000000000000000                          0000000000                                                                  000224
1024745815300014000000060237401651994                         000000004164316220880000000000000000000000000602281119000272078800000000416431622088021219000000006408023704400  000000000000000000000000000000000000000000000000000000000000000000000000000000000000000000000000000000000000000000000                          0000000000                                                                  000225
1024745815300014000000060237401651994                         000000004164316220960000000000000000000000000602281119002008590900000000416431622096201219000000006675723700140  000000000000000000000000000000000000000000000000000000000000000000000000000000000000000000000000000000000000000000000                          0000000000                                                                  000226
1024745815300014000000060237401651994                         0000000041643162210P000000000000000000000000060228111900200577430000000041643162210P101219000000004506023700408  000000000000000000000000000000000000000000000000000000000000000000000000000000000000000000000000000000000000000000000                          0000000000                                                                  000227
1024745815300014000000060237401651994                         000000004164316221180000000000000000000000000602281119000270229900000000416431622118201219000000006694723700523  000000000000000000000000000000000000000000000000000000000000000000000000000000000000000000000000000000000000000000000                          0000000000                                                                  000228
1024745815300014000000060237401651994                         000000004164316221260000000000000000000000000602281119000258508900000000416431622126021219000000002945023704422  000000000000000000000000000000000000000000000000000000000000000000000000000000000000000000000000000000000000000000000                          0000000000                                                                  000229
1024745815300014000000060237401651994                         000000004164316221340000000000000000000000000602281119002004798800000000416431622134021219000000009202223700153  000000000000000000000000000000000000000000000000000000000000000000000000000000000000000000000000000000000000000000000                          0000000000                                                                  000230
1024745815300014000000060237401651994                         000000004164316221420000000000000000000000000602281119000258508900000000416431622142021219000000002918023704422  000000000000000000000000000000000000000000000000000000000000000000000000000000000000000000000000000000000000000000000                          0000000000                                                                  000231
1024745815300014000000060237401651994                         000000004164316221500000000000000000000000000602281119002005867700000000416431622150101219000000008151423700408  000000000000000000000000000000000000000000000000000000000000000000000000000000000000000000000000000000000000000000000                          0000000000                                                                  000232
1024745815300014000000060237401651994                         000000004164316221690000000000000000000000000602281119000250790900000000416431622169021219000000004451923700153  000000000000000000000000000000000000000000000000000000000000000000000000000000000000000000000000000000000000000000000                          0000000000                                                                  000233
1024745815300014000000060237401651994                         000000004164316222070000000000000000000000000602281119000270229900000000416431622207200120000000006694723700523  000000000000000000000000000000000000000000000000000000000000000000000000000000000000000000000000000000000000000000000                          0000000000                                                                  000234
1024745815300014000000060237401651994                         000000004164316222230000000000000000000000000602281119000254864600000000416431622223101219000000001727323704147  000000000000000000000000000000000000000000000000000000000000000000000000000000000000000000000000000000000000000000000                          0000000000                                                                  000235
1024745815300014000000060237401651994                         000000004164316222310000000000000000000000000602281119001001923600000000416431622231021219000000003628023700153  000000000000000000000000000000000000000000000000000000000000000000000000000000000000000000000000000000000000000000000                          0000000000                                                                  000236
1024745815300014000000060237401651994                         0000000041643162224P000000000000000000000000060228111900200733140000000041643162224P291119000000138250923700140  000000000000000000000000000000000000000000000000000000000000000000000000000000000000000000000000000000000000000000000                          0000000000                                                                  000237
1024745815300014000000060237401651994                         000000004164316222580000000000000000000000000602281119000270229900000000416431622258200220000000006694723700523  000000000000000000000000000000000000000000000000000000000000000000000000000000000000000000000000000000000000000000000                          0000000000                                                                  000238
1024745815300014000000060237401651994                         000000004164316222660000000000000000000000000602281119000279228900000000416431622266291119000000057460523700435  000000000000000000000000000000000000000000000000000000000000000000000000000000000000000000000000000000000000000000000                          0000000000                                                                  000239
1024745815300014000000060237401651994                         000000004164316222820000000000000000000000000602281119002005868000000000416431622282101219000000008182423700408  000000000000000000000000000000000000000000000000000000000000000000000000000000000000000000000000000000000000000000000                          0000000000                                                                  000240
1024745815300014000000060237401651994                         000000004164316222900000000000000000000000000602281119000270229900000000416431622290200320000000006694723700523  000000000000000000000000000000000000000000000000000000000000000000000000000000000000000000000000000000000000000000000                          0000000000                                                                  000241
1024745815300014000000060237401651994                         000000004164316223040000000000000000000000000602281119002000360600000000416431622304021219000000001924023700408  000000000000000000000000000000000000000000000000000000000000000000000000000000000000000000000000000000000000000000000                          0000000000                                                                  000242
1024745815300014000000060237401651994                         000000004164316223120000000000000000000000000602281119000260790400000000416431622312281119000000038812023704143  000000000000000000000000000000000000000000000000000000000000000000000000000000000000000000000000000000000000000000000                          0000000000                                                                  000243
1024745815300014000000060237401651994                         000000004164316223390000000000000000000000000602281119002008360300000000416431622339021219000000018244823704400  000000000000000000000000000000000000000000000000000000000000000000000000000000000000000000000000000000000000000000000                          0000000000                                                                  000244
1024745815300014000000060237401651994                         000000004164316223470000000000000000000000000602281119000280890400000000416431622347201219000000002575423704159  000000000000000000000000000000000000000000000000000000000000000000000000000000000000000000000000000000000000000000000                          0000000000                                                                  000245
1024745815300014000000060237401651994                         000000004164316223550000000000000000000000000602281119002010617900000000416431622355031219000000003336623704143  000000000000000000000000000000000000000000000000000000000000000000000000000000000000000000000000000000000000000000000                          0000000000                                                                  000246
1024745815300014000000060237401651994                         000000004164316223630000000000000000000000000602281119001001923600000000416431622363101219000000003465223700153  000000000000000000000000000000000000000000000000000000000000000000000000000000000000000000000000000000000000000000000                          0000000000                                                                  000247
1024745815300014000000060237401651994                         000000004164316223710000000000000000000000000602281119000279475400000000416431622371291119000000082171923704452  000000000000000000000000000000000000000000000000000000000000000000000000000000000000000000000000000000000000000000000                          0000000000                                                                  000248
