02RETORNO01COBRANCA       00000000000000616741YAMAHA ADMINISTR. CONS SC LTDA237BRADESCO       2811190160000003754                                                                                                                                                                                                                                                                          291119         000001
1024745815300014000000060237401651994                         000000004164258893310000000000000000000000000606281119000275241400000000416425889331101219000000002716410402748  000000000000000000000000000000000000000000000000000000000000000000000000000000000000002716400000000000000000000000000   291119078          00000000000000                                                                  001742
1024745815300014000000060237401651994                         000000004164266786790000000000000000000000000606281119002004405800000000416426678679101219000000009146310403724  000000000000000000000000000000000000000000000000000000000000000000000000000000000000009146300000000000000000000000000   291119078          00000000000000                                                                  001743
1024745815300014000000060237401651994                         000000004164280768030000000000000000000000000606281119002008397000000000416428076803101219000000004561223701245  000000000000000000000000000000000000000000000000000000000000000000000000000000000000004561200000000000000000000000000   291119074          00000000000000                                                                  001744
1024745815300014000000060237401651994                         000000004164282802060000000000000000000000000606281119001002798400000000416428280206101219000000003376823700905  000000000000000000000000000000000000000000000000000000000000000000000000000000000000003376800000000000000000000000000   291119082          00000000000000                                                                  001745
1024745815300014000000060237401651994                         000000004164282960050000000000000000000000000606281119000249693200000000416428296005101219000000002850100101178  000000000000000000000000000000000000000000000000000000000000000000000000000000000000002850100000000000000000000000000   291119078          00000000000000                                                                  001746
1024745815300014000000060237401651994                         000000004164287037350000000000000000000000000606281119000261694200000000416428703735101219000000001645923700620  000000000000000000000000000000000000000000000000000000000000000000000000000000000000001645900000000000000000000000000   291119082          00000000000000                                                                  001747
1024745815300014000000060237401651994                         000000004164287199410000000000000000000000000606281119000265275300000000416428719941101219000000001086410400551  000000000000000000000000000000000000000000000000000000000000000000000000000000000000001086400000000000000000000000000   291119078          00000000000000                                                                  001748
1024745815300014000000060237401651994                         000000004164287298660000000000000000000000000606281119000268721600000000416428729866201219000000006761823702831  000000000000000000000000000000000000000000000000000000000000000000000000000000000000006761800000000000000000000000000   291119002          00000000000000                                                                  001749
1024745815300014000000060237401651994                         000000004164289512160000000000000000000000000606281119000281877500000000416428951216201219000000004184110403905  000000000000000000000000000000000000000000000000000000000000000000000000000000000000004184100000000000000000000000000   291119078          00000000000000                                                                  001750
1024745815300014000000060237401651994                         0000000041642906728P000000000000000000000000060628111900025197210000000041642906728P101219000000002187810403594  000000000000000000000000000000000000000000000000000000000000000000000000000000000000002187800000000000000000000000000   291119078          00000000000000                                                                  001751
1024745815300014000000060237401651994                         000000004164294096950000000000000000000000000606281119000278674600000000416429409695101219000000002194810400638  000000000000000000000000000000000000000000000000000000000000000000000000000000000000002194800000000000000000000000000   291119078          00000000000000                                                                  001752
1024745815300014000000060237401651994                         000000004164294195770000000000000000000000000606281119000271659000000000416429419577101219000000003359910402991  000000000000000000000000000000000000000000000000000000000000000000000000000000000000003359900000000000000000000000000   291119078          00000000000000                                                                  001753
1024745815300014000000060237401651994                         000000004164294391790000000000000000000000000606281119002004741400000000416429439179101219000000001775010400994  000000000000000000000000000000000000000000000000000000000000000000000000000000000000001775000000000000000000000000000   291119078          00000000000000                                                                  001754
1024745815300014000000060237401651994                         000000004164295769310000000000000000000000000606281119002002933400000000416429576931201219000000004268623701876  000000000000000000000000000000000000000000000000000000000000000000000000000000000000004268600000000000000000000000000   291119082          00000000000000                                                                  001755
1024745815300014000000060237401651994                         000000004164298753940000000000000000000000000606281119002008583300000000416429875394101219000000002660610403903  000000000000000000000000000000000000000000000000000000000000000000000000000000000000002660600000000000000000000000000   291119078          00000000000000                                                                  001756
1024745815300014000000060237401651994                         000000004164304994870000000000000000000000000606281119000281383900000000416430499487201219000000003853300100069  000000000000000000000000000000000000000000000000000000000000000000000000000000000000003853300000000000000000000000000   291119078          00000000000000                                                                  001757
1024745815300014000000060237401651994                         000000004164305703190000000000000000000000000606281119000279361800000000416430570319101219000000001649910403865  000000000000000000000000000000000000000000000000000000000000000000000000000000000000001649900000000000000000000000000   291119078          00000000000000                                                                  001758
1024745815300014000000060237401651994                         000000004164305718380000000000000000000000000606281119002005478200000000416430571838101219000000002823810404065  000000000000000000000000000000000000000000000000000000000000000000000000000000000000002823800000000000000000000000000   291119078          00000000000000                                                                  001759
1024745815300014000000060237401651994                         000000004164305872460000000000000000000000000606281119001002605100000000416430587246201219000000004268610404398  000000000000000000000000000000000000000000000000000000000000000000000000000000000000004268600000000000000000000000000   291119078          00000000000000                                                                  001760
1024745815300014000000060237401651994                         000000004164305890520000000000000000000000000606281119002007614500000000416430589052101219000000002240923700673  000000000000000000000000000000000000000000000000000000000000000000000000000000000000002240900000000000000000000000000   291119082          00000000000000                                                                  001761
1024745815300014000000060237401651994                         0000000041643064813P000000000000000000000000060628111900027106940000000041643064813P101219000000002754934106277  000000000000000000000000000000000000000000000000000000000000000000000000000000000000002754900000000000000000000000000   291119078          00000000000000                                                                  001762
1024745815300014000000060237401651994                         000000004164308552400000000000000000000000000606281119000531674300000000416430855240101219000000002701310403364  000000000000000000000000000000000000000000000000000000000000000000000000000000000000002701300000000000000000000000000   291119078          00000000000000                                                                  001763
1024745815300014000000060237401651994                         000000004164308798670000000000000000000000000606281119000264467800000000416430879867101219000000003183610401580  000000000000000000000000000000000000000000000000000000000000000000000000000000000000003183600000000000000000000000000   291119078          00000000000000                                                                  001764
1024745815300014000000060237401651994                         000000004164309314190000000000000000000000000606281119002009431200000000416430931419101219000000002742010403575  000000000000000000000000000000000000000000000000000000000000000000000000000000000000002742000000000000000000000000000   291119078          00000000000000                                                                  001765
1024745815300014000000060237401651994                         000000004164309342210000000000000000000000000606281119000281554800000000416430934221100620000000002440110403101  000000000000000000000000000000000000000000000000000000000000000000000000000000000000002440100000000000000000000000000   291119078          00000000000000                                                                  001766
1024745815300014000000060237401651994                         000000004164309392070000000000000000000000000606281119001001960600000000416430939207101219000000003781123705751  000000000000000000000000000000000000000000000000000000000000000000000000000000000000003781100000000000000000000000000   291119066          00000000000000                                                                  001767
1024745815300014000000060237401651994                         000000004164309392740000000000000000000000000606281119001002665600000000416430939274101219000000004960134107385  000000000000000000000000000000000000000000000000000000000000000000000000000000000000004960100000000000000000000000000   291119078          00000000000000                                                                  001768
1024745815300014000000060237401651994                         0000000041643096984P000000000000000000000000060628111900200948050000000041643096984P101219000000005167803301633  000000000000000000000000000000000000000000000000000000000000000000000000000000000000005167800000000000000000000000000   291119078          00000000000000                                                                  001769
1024745815300014000000060237401651994                         000000004164309811490000000000000000000000000606281119002001048300000000416430981149101219000000002357903304500  000000000000000000000000000000000000000000000000000000000000000000000000000000000000002357900000000000000000000000000   291119078          00000000000000                                                                  001770
1024745815300014000000060237401651994                         000000004164310246010000000000000000000000000606281119002005746400000000416431024601101219000000004065600102128  000000000000000000000000000000000000000000000000000000000000000000000000000000000000004065600000000000000000000000000   291119078          00000000000000                                                                  001771
1024745815300014000000060237401651994                         000000004164310254460000000000000000000000000606281119002002919300000000416431025446101219000000007639710403676  000000000000000000000000000000000000000000000000000000000000000000000000000000000000007639700000000000000000000000000   291119078          00000000000000                                                                  001772
1024745815300014000000060237401651994                         000000004164310276350000000000000000000000000606281119000272542100000000416431027635101219000000002638510404187  000000000000000000000000000000000000000000000000000000000000000000000000000000000000002638500000000000000000000000000   291119078          00000000000000                                                                  001773
1024745815300014000000060237401651994                         000000004164310412120000000000000000000000000606281119001001368500000000416431041212101219000000002611303303270  000000000000000000000000000000000000000000000000000000000000000000000000000000000000002611300000000000000000000000000   291119078          00000000000000                                                                  001774
1024745815300014000000060237401651994                         000000004164310930260000000000000000000000000606281119002001235600000000416431093026101219000000005404026000001  000000000000000000000000000000000000000000000000000000000000000000000000000000000000005404000000000000000000000000000   291119078          00000000000000                                                                  001775
1024745815300014000000060237401651994                         000000004164311149880000000000000000000000000606281119002008460100000000416431114988101219000000001782703303720  000000000000000000000000000000000000000000000000000000000000000000000000000000000000001782700000000000000000000000000   291119078          00000000000000                                                                  001776
1024745815300014000000060237401651994                         000000004164312920100000000000000000000000000606281119000269455500000000416431292010201219000000003673823700620  000000000000000000000000000000000000000000000000000000000000000000000000000000000000003673800000000000000000000000000   291119082          00000000000000                                                                  001777
1024745815300014000000060237401651994                         000000004164313122670000000000000000000000000606281119002010332100000000416431312267101219000000005215903700011  000000000000000000000000000000000000000000000000000000000000000000000000000000000000005215900000000000000000000000000   291119078          00000000000000                                                                  001778
1024745815300014000000060237401651994                         0000000041643131958P000000000000000000000000060628111900026332570000000041643131958P101219000000002969800103231  000000000000000000000000000000000000000000000000000000000000000000000000000000000000002969800000000000000000000000000   291119078          00000000000000                                                                  001779
1024745815300014000000060237401651994                         000000004164313265000000000000000000000000000606281119000272100600000000416431326500100820000000009107523703651  000000000000000000000000000000000000000000000000000000000000000000000000000000000000009107500000000000000000000000000   291119035          00000000000000                                                                  001780
1024745815300014000000060237401651994                         000000004164313314740000000000000000000000000606281119002010200800000000416431331474101219000000003922910403385  000000000000000000000000000000000000000000000000000000000000000000000000000000000000003922900000000000000000000000000   291119078          00000000000000                                                                  001781
1024745815300014000000060237401651994                         0000000041643133449P000000000000000000000000060628111900200818140000000041643133449P201219000000001666410401719  000000000000000000000000000000000000000000000000000000000000000000000000000000000000001666400000000000000000000000000   291119078          00000000000000                                                                  001782
1024745815300014000000060237401651994                         000000004164313417550000000000000000000000000606281119002008029000000000416431341755161219000000004896075607064  000000000000000000000000000000000000000000000000000000000000000000000000000000000000004896000000000000000000000000000   291119078          00000000000000                                                                  001783
1024745815300014000000060237401651994                         000000004164313418600000000000000000000000000606281119002008008400000000416431341860161219000000004896075607064  000000000000000000000000000000000000000000000000000000000000000000000000000000000000004896000000000000000000000000000   291119078          00000000000000                                                                  001784
1024745815300014000000060237401651994                         000000004164313419840000000000000000000000000606281119002008008300000000416431341984161219000000004896075607064  000000000000000000000000000000000000000000000000000000000000000000000000000000000000004896000000000000000000000000000   291119078          00000000000000                                                                  001785
1024745815300014000000060237401651994                         000000004164313420690000000000000000000000000606281119002008029300000000416431342069161219000000004896075607064  000000000000000000000000000000000000000000000000000000000000000000000000000000000000004896000000000000000000000000000   291119078          00000000000000                                                                  001786
1024745815300014000000060237401651994                         0000000041643134732P000000000000000000000000060628111900201052690000000041643134732P271119000000002660623700696  000000000000000000000000000000000000000000000000000000000000000000000000000000000000002660600000000000000000000000000   291119082          00000000000000                                                                  001787
1024745815300014000000060237401651994                         000000004164313595220000000000000000000000000606281119002010536400000000416431359522271119000000007144623700696  000000000000000000000000000000000000000000000000000000000000000000000000000000000000007144600000000000000000000000000   291119066          00000000000000                                                                  001788
1024745815300014000000060237401651994                         000000004164313730100000000000000000000000000606281119001004350600000000416431373010201219000000003596310402755  000000000000000000000000000000000000000000000000000000000000000000000000000000000000003596300000000000000000000000000   291119078          00000000000000                                                                  001789
1024745815300014000000060237401651994                         000000004164313736810000000000000000000000000606281119002009734900000000416431373681201219000000004338410402848  000000000000000000000000000000000000000000000000000000000000000000000000000000000000004338400000000000000000000000000   291119078          00000000000000                                                                  001790
1024745815300014000000060237401651994                         000000004164313763030000000000000000000000000606281119001001439000000000416431376303101219000000002973600101773  000000000000000000000000000000000000000000000000000000000000000000000000000000000000002973600000000000000000000000000   291119078          00000000000000                                                                  001791
1024745815300014000000060237401651994                         000000004164313764270000000000000000000000000606281119001005314600000000416431376427281119000000002701474808409  000000000000000000000000000000000000000000000000000000000000000000000000000000000000002701400000000000000000000000000   291119078          00000000000000                                                                  001792
1024745815300014000000060237401651994                         000000004164313765670000000000000000000000000606281119002010547500000000416431376567281119000000013580065500001  000000000000000000000000000000000000000000000000000000000000000000000000000000000000013580000000000000000000000000000   291119078          00000000000000                                                                  001793
1024745815300014000000060237401651994                         000000004164313780470000000000000000000000000606281119002010547900000000416431378047281119000000002937910400610  000000000000000000000000000000000000000000000000000000000000000000000000000000000000002937900000000000000000000000000   291119078          00000000000000                                                                  001794
1024745815300014000000060237401651994                         000000004164313783730000000000000000000000000606281119001005497500000000416431378373281119000000004331503303744  000000000000000000000000000000000000000000000000000000000000000000000000000000000000004331500000000000000000000000000   291119078          00000000000000                                                                  001795
1024745815300014000000060237401651994                         000000004164313818540000000000000000000000000606281119001004389100000000416431381854281119000000006627974808004  000000000000000000000000000000000000000000000000000000000000000000000000000000000000006627900000000000000000000000000   291119078          00000000000000                                                                  001796
1024745815300014000000060237401651994                         000000004164313824000000000000000000000000000606281119000532372500000000416431382400201219000000006527110401671  000000000000000000000000000000000000000000000000000000000000000000000000000000000000006527100000000000000000000000000   291119078          00000000000000                                                                  001797
1024745815300014000000060237401651994                         000000004164313833420000000000000000000000000606281119002010551900000000416431383342281119000000003090500100261  000000000000000000000000000000000000000000000000000000000000000000000000000000000000003090500000000000000000000000000   291119078          00000000000000                                                                  001798
1024745815300014000000060237401651994                         000000004164313836870000000000000000000000000606281119002010552200000000416431383687281119000000003575100101117  000000000000000000000000000000000000000000000000000000000000000000000000000000000000003575100000000000000000000000000   291119078          00000000000000                                                                  001799
1024745815300014000000060237401651994                         000000004164313845940000000000000000000000000606281119001005577200000000416431384594281119000000003836603301666  000000000000000000000000000000000000000000000000000000000000000000000000000000000000003836600000000000000000000000000   291119078          00000000000000                                                                  001800
1024745815300014000000060237401651994                         000000004164313885650000000000000000000000000606281119002010557300000000416431388565281119000000002063003300003  000000000000000000000000000000000000000000000000000000000000000000000000000000000000002063000000000000000000000000000   291119078          00000000000000                                                                  001801
1024745815300014000000060237401651994                         000000004164313890730000000000000000000000000606281119002001043000000000416431389073111219000000048136207000280  000000000000000000000000000000000000000000000000000000000000000000000000000000000000048136200000000000000000000000000   291119078          00000000000000                                                                  001802
1024745815300014000000060237401651994                         000000004164313896180000000000000000000000000606281119002010558100000000416431389618281119000000004268523703016  000000000000000000000000000000000000000000000000000000000000000000000000000000000000004268500000000000000000000000000   291119082          00000000000000                                                                  001803
1024745815300014000000060237401651994                         000000004164313905430000000000000000000000000606281119000532414400000000416431390543281119000000002481110400699  000000000000000000000000000000000000000000000000000000000000000000000000000000000000002481100000000000000000000000000   291119078          00000000000000                                                                  001804
1024745815300014000000060237401651994                         000000004164313910860000000000000000000000000606281119002010559200000000416431391086281119000000002369423700620  000000000000000000000000000000000000000000000000000000000000000000000000000000000000002369400000000000000000000000000   291119035          00000000000000                                                                  001805
1024745815300014000000060237401651994                         000000004164313924060000000000000000000000000606281119002010560700000000416431392406281119000000001782723701401  000000000000000000000000000000000000000000000000000000000000000000000000000000000000001782700000000000000000000000000   291119074          00000000000000                                                                  001806
1024745815300014000000060237401651994                         000000004164313929100000000000000000000000000606281119002010561400000000416431392910281119000000001439810400771  000000000000000000000000000000000000000000000000000000000000000000000000000000000000001439800000000000000000000000000   291119078          00000000000000                                                                  001807
1024745815300014000000060237401651994                         000000004164313931860000000000000000000000000606281119002010561700000000416431393186281119000000001260510400771  000000000000000000000000000000000000000000000000000000000000000000000000000000000000001260500000000000000000000000000   291119078          00000000000000                                                                  001808
1024745815300014000000060237401651994                         000000004164313933640000000000000000000000000606281119002010562100000000416431393364281119000000001666410400771  000000000000000000000000000000000000000000000000000000000000000000000000000000000000001666400000000000000000000000000   291119078          00000000000000                                                                  001809
1024745815300014000000060237401651994                         000000004164313936150000000000000000000000000606281119002010562300000000416431393615281119000000001439810400771  000000000000000000000000000000000000000000000000000000000000000000000000000000000000001439800000000000000000000000000   291119078          00000000000000                                                                  001810
1024745815300014000000060237401651994                         000000004164313941310000000000000000000000000606281119000283450800000000416431394131281119000000004678523703784  000000000000000000000000000000000000000000000000000000000000000000000000000000000000004678500000000000000000000000000   291119035          00000000000000                                                                  001811
1024745815300014000000060237401651994                         0000000041643139462P000000000000000000000000060628111900201056310000000041643139462P281119000000006050803303682  000000000000000000000000000000000000000000000000000000000000000000000000000000000000006050800000000000000000000000000   291119078          00000000000000                                                                  001812
1024745815300014000000060237401651994                         000000004164313947190000000000000000000000000606281119002010563400000000416431394719281119000000006050803303682  000000000000000000000000000000000000000000000000000000000000000000000000000000000000006050800000000000000000000000000   291119078          00000000000000                                                                  001813
1024745815300014000000060237401651994                         000000004164313951540000000000000000000000000606281119002010563800000000416431395154281119000000001666410400771  000000000000000000000000000000000000000000000000000000000000000000000000000000000000001666400000000000000000000000000   291119078          00000000000000                                                                  001814
1024745815300014000000060237401651994                         000000004164313957740000000000000000000000000606281119002010564500000000416431395774281119000000003258223702397  000000000000000000000000000000000000000000000000000000000000000000000000000000000000003258200000000000000000000000000   291119066          00000000000000                                                                  001815
1024745815300014000000060237401651994                         000000004164313961260000000000000000000000000606281119000532414700000000416431396126281119000000004065600104749  000000000000000000000000000000000000000000000000000000000000000000000000000000000000004065600000000000000000000000000   291119078          00000000000000                                                                  001816
1024745815300014000000060237401651994                         0000000041643139641P000000000000000000000000060628111900201056600000000041643139641P281119000000003861403300773  000000000000000000000000000000000000000000000000000000000000000000000000000000000000003861400000000000000000000000000   291119078          00000000000000                                                                  001817
1024745815300014000000060237401651994                         000000004164313969400000000000000000000000000606281119000269408900000000416431396940101219000000008547500103003  000000000000000000000000000000000000000000000000000000000000000000000000000000000000008547500000000000000000000000000   291119078          00000000000000                                                                  001818
1024745815300014000000060237401651994                         000000004164313972030000000000000000000000000606281119001005192900000000416431397203101219000000004268510400394  000000000000000000000000000000000000000000000000000000000000000000000000000000000000004268500000000000000000000000000   291119078          00000000000000                                                                  001819
1024745815300014000000060237401651994                         000000004164313972380000000000000000000000000606281119002010567100000000416431397238281119000000007306223701172  000000000000000000000000000000000000000000000000000000000000000000000000000000000000007306200000000000000000000000000   291119035          00000000000000                                                                  001820
1024745815300014000000060237401651994                         000000004164313974830000000000000000000000000606281119002010567300000000416431397483281119000000004983400107850  000000000000000000000000000000000000000000000000000000000000000000000000000000000000004983400000000000000000000000000   291119078          00000000000000                                                                  001821
1024745815300014000000060237401651994                         000000004164313982770000000000000000000000000606281119001002685800000000416431398277281119000000007443023703062  000000000000000000000000000000000000000000000000000000000000000000000000000000000000007443000000000000000000000000000   291119066          00000000000000                                                                  001822
1024745815300014000000060237401651994                         000000004164313983900000000000000000000000000606281119002010567800000000416431398390281119000000001869834104826  000000000000000000000000000000000000000000000000000000000000000000000000000000000000001869800000000000000000000000000   291119078          00000000000000                                                                  001823
1024745815300014000000060237401651994                         000000004164313984550000000000000000000000000606281119001002685900000000416431398455281119000000007443023703062  000000000000000000000000000000000000000000000000000000000000000000000000000000000000007443000000000000000000000000000   291119066          00000000000000                                                                  001824
1024745815300014000000060237401651994                         000000004164313985870000000000000000000000000606281119001002686000000000416431398587281119000000007443023703062  000000000000000000000000000000000000000000000000000000000000000000000000000000000000007443000000000000000000000000000   291119066          00000000000000                                                                  001825
1024745815300014000000060237401651994                         0000000041643139865P000000000000000000000000060628111900201056810000000041643139865P281119000000004090034104826  000000000000000000000000000000000000000000000000000000000000000000000000000000000000004090000000000000000000000000000   291119078          00000000000000                                                                  001826
1024745815300014000000060237401651994                         000000004164313993620000000000000000000000000606281119002010568500000000416431399362281119000000001914223701401  000000000000000000000000000000000000000000000000000000000000000000000000000000000000001914200000000000000000000000000   291119074          00000000000000                                                                  001827
1024745815300014000000060237401651994                         000000004164313996560000000000000000000000000606281119001005676100000000416431399656281119000000008827810403548  000000000000000000000000000000000000000000000000000000000000000000000000000000000000008827800000000000000000000000000   291119078          00000000000000                                                                  001828
1024745815300014000000060237401651994                         000000004164305997240000000000000000000000000610281119000272253100000000416430599724261119000000005000023700000  000000000000000000000000000000000000000000000000000000000000000000000000000000000000000000000000000000000000000000000                          1600000000                                                                  002836
1024745815300014000000060237401651994                         000000004164313049810000000000000000000000000610281119000532408700000000416431304981261119000000004987923700000  000000000000000000000000000000000000000000000000000000000000000000000000000000000000000000000000000000000000000000000                          1600000000                                                                  002837
1024745815300014000000060237401651994                         000000004164313050740000000000000000000000000610281119000532408900000000416431305074261119000000004987923700000  000000000000000000000000000000000000000000000000000000000000000000000000000000000000000000000000000000000000000000000                          1600000000                                                                  002838
1024745815300014000000060237401651994                         000000004164313052360000000000000000000000000610281119000532409000000000416431305236261119000000004676523700000  000000000000000000000000000000000000000000000000000000000000000000000000000000000000000000000000000000000000000000000                          1600000000                                                                  002839
1024745815300014000000060237401651994                         000000004164313108760000000000000000000000000610281119001005222100000000416431310876261119000000001936423700000  000000000000000000000000000000000000000000000000000000000000000000000000000000000000000000000000000000000000000000000                          1600000000                                                                  002840
1024745815300014000000060237401651994                         000000004164313115540000000000000000000000000610281119002010498700000000416431311554261119000000014774023700000  000000000000000000000000000000000000000000000000000000000000000000000000000000000000000000000000000000000000000000000                          1600000000                                                                  002841
1024745815300014000000060237401651994                         0000000041643131328P000000000000000000000000061028111900201049940000000041643131328P261119000000001914223700000  000000000000000000000000000000000000000000000000000000000000000000000000000000000000000000000000000000000000000000000                          1600000000                                                                  002842
1024745815300014000000060237401651994                         000000004164313141110000000000000000000000000610281119002010500000000000416431314111261119000000003923423700000  000000000000000000000000000000000000000000000000000000000000000000000000000000000000000000000000000000000000000000000                          1600000000                                                                  002843
1024745815300014000000060237401651994                         000000004164313150100000000000000000000000000610281119002010501000000000416431315010261119000000004825523700000  000000000000000000000000000000000000000000000000000000000000000000000000000000000000000000000000000000000000000000000                          1600000000                                                                  002844
1024745815300014000000060237401651994                         000000004164313159080000000000000000000000000610281119001002972800000000416431315908261119000000011021823700000  000000000000000000000000000000000000000000000000000000000000000000000000000000000000000000000000000000000000000000000                          1600000000                                                                  002845
1024745815300014000000060237401651994                         000000004164313162030000000000000000000000000610281119002010501900000000416431316203261119000000001170623700000  000000000000000000000000000000000000000000000000000000000000000000000000000000000000000000000000000000000000000000000                          1600000000                                                                  002846
1024745815300014000000060237401651994                         000000004164313164240000000000000000000000000610281119002010502000000000416431316424261119000000003336623700000  000000000000000000000000000000000000000000000000000000000000000000000000000000000000000000000000000000000000000000000                          1600000000                                                                  002847
1024745815300014000000060237401651994                         000000004164313172180000000000000000000000000610281119002010502500000000416431317218261119000000007077423700000  000000000000000000000000000000000000000000000000000000000000000000000000000000000000000000000000000000000000000000000                          1600000000                                                                  002848
1024745815300014000000060237401651994                         000000004164313174470000000000000000000000000610281119002010502700000000416431317447261119000000005790623700000  000000000000000000000000000000000000000000000000000000000000000000000000000000000000000000000000000000000000000000000                          1600000000                                                                  002849
1024745815300014000000060237401651994                         000000004164313177650000000000000000000000000610281119002010503100000000416431317765261119000000004456323700000  000000000000000000000000000000000000000000000000000000000000000000000000000000000000000000000000000000000000000000000                          1600000000                                                                  002850
1024745815300014000000060237401651994                         000000004164313180600000000000000000000000000610281119002010503500000000416431318060261119000000006067923700000  000000000000000000000000000000000000000000000000000000000000000000000000000000000000000000000000000000000000000000000                          1600000000                                                                  002851
1024745815300014000000060237401651994                         000000004164313196520000000000000000000000000610281119002010504900000000416431319652261119000000003513023700000  000000000000000000000000000000000000000000000000000000000000000000000000000000000000000000000000000000000000000000000                          1600000000                                                                  002852
1024745815300014000000060237401651994                         000000004164313202860000000000000000000000000610281119002010505300000000416431320286261119000000004090023700000  000000000000000000000000000000000000000000000000000000000000000000000000000000000000000000000000000000000000000000000                          1600000000                                                                  002853
1024745815300014000000060237401651994                         000000004164313207660000000000000000000000000610281119002010505500000000416431320766261119000000006434023700000  000000000000000000000000000000000000000000000000000000000000000000000000000000000000000000000000000000000000000000000                          1600000000                                                                  002854
1024745815300014000000060237401651994                         000000004164313211850000000000000000000000000610281119002010505700000000416431321185261119000000006566223700000  000000000000000000000000000000000000000000000000000000000000000000000000000000000000000000000000000000000000000000000                          1600000000                                                                  002855
1024745815300014000000060237401651994                         000000004164313252370000000000000000000000000610281119002010508900000000416431325237261119000000002701423700000  000000000000000000000000000000000000000000000000000000000000000000000000000000000000000000000000000000000000000000000                          1600000000                                                                  002856
1024745815300014000000060237401651994                         000000004164313256010000000000000000000000000610281119002010509700000000416431325601261119000000004825523700000  000000000000000000000000000000000000000000000000000000000000000000000000000000000000000000000000000000000000000000000                          1600000000                                                                  002857
1024745815300014000000060237401651994                         000000004164313257250000000000000000000000000610281119002010510000000000416431325725261119000000006814723700000  000000000000000000000000000000000000000000000000000000000000000000000000000000000000000000000000000000000000000000000                          1600000000                                                                  002858
1024745815300014000000060237401651994                         000000004164313273100000000000000000000000000610281119002010511700000000416431327310261119000000005790623700000  000000000000000000000000000000000000000000000000000000000000000000000000000000000000000000000000000000000000000000000                          1600000000                                                                  002859
1024745815300014000000060237401651994                         000000004164313277870000000000000000000000000610281119002010512300000000416431327787261119000000002143923700000  000000000000000000000000000000000000000000000000000000000000000000000000000000000000000000000000000000000000000000000                          1600000000                                                                  002860
1024745815300014000000060237401651994                         000000004164313282360000000000000000000000000610281119002010513400000000416431328236261119000000001458923700000  000000000000000000000000000000000000000000000000000000000000000000000000000000000000000000000000000000000000000000000                          1600000000                                                                  002861
1024745815300014000000060237401651994                         000000004164313291860000000000000000000000000610281119002010514300000000416431329186261119000000004382523700000  000000000000000000000000000000000000000000000000000000000000000000000000000000000000000000000000000000000000000000000                          1600000000                                                                  002862
1024745815300014000000060237401651994                         000000004164313293640000000000000000000000000610281119001005382500000000416431329364261119000000007550423700000  000000000000000000000000000000000000000000000000000000000000000000000000000000000000000000000000000000000000000000000                          1600000000                                                                  002863
1024745815300014000000060237401651994                         000000004164313305160000000000000000000000000610281119002010515400000000416431330516261119000000002696523700000  000000000000000000000000000000000000000000000000000000000000000000000000000000000000000000000000000000000000000000000                          1600000000                                                                  002864
1024745815300014000000060237401651994                         000000004164313305240000000000000000000000000610281119002010515600000000416431330524261119000000004825523700000  000000000000000000000000000000000000000000000000000000000000000000000000000000000000000000000000000000000000000000000                          1600000000                                                                  002865
1024745815300014000000060237401651994                         000000004164313310830000000000000000000000000610281119002010516200000000416431331083261119000000001914223700000  000000000000000000000000000000000000000000000000000000000000000000000000000000000000000000000000000000000000000000000                          1600000000                                                                  002866
1024745815300014000000060237401651994                         000000004164313316520000000000000000000000000610281119002010516800000000416431331652261119000000004825523700000  000000000000000000000000000000000000000000000000000000000000000000000000000000000000000000000000000000000000000000000                          1600000000                                                                  002867
1024745815300014000000060237401651994                         000000004164313318570000000000000000000000000610281119002010517200000000416431331857261119000000002618023700000  000000000000000000000000000000000000000000000000000000000000000000000000000000000000000000000000000000000000000000000                          1600000000                                                                  002868
1024745815300014000000060237401651994                         000000004164313321360000000000000000000000000610281119000285004200000000416431332136261119000000003401023700000  000000000000000000000000000000000000000000000000000000000000000000000000000000000000000000000000000000000000000000000                          1600000000                                                                  002869
1024745815300014000000060237401651994                         000000004164313331320000000000000000000000000610281119002010518300000000416431333132261119000000014261823700000  000000000000000000000000000000000000000000000000000000000000000000000000000000000000000000000000000000000000000000000                          1600000000                                                                  002870
1024745815300014000000060237401651994                         000000004164313340660000000000000000000000000610281119002010519100000000416431334066261119000000004090023700000  000000000000000000000000000000000000000000000000000000000000000000000000000000000000000000000000000000000000000000000                          1600000000                                                                  002871
1024745815300014000000060237401651994                         000000004164313340900000000000000000000000000610281119002010519200000000416431334090261119000000004090023700000  000000000000000000000000000000000000000000000000000000000000000000000000000000000000000000000000000000000000000000000                          1600000000                                                                  002872
1024745815300014000000060237401651994                         000000004164313346000000000000000000000000000610281119002010519700000000416431334600261119000000004825523700000  000000000000000000000000000000000000000000000000000000000000000000000000000000000000000000000000000000000000000000000                          1600000000                                                                  002873
1024745815300014000000060237401651994                         000000004164313347750000000000000000000000000610281119002010519900000000416431334775261119000000005790623700000  000000000000000000000000000000000000000000000000000000000000000000000000000000000000000000000000000000000000000000000                          1600000000                                                                  002874
1024745815300014000000060237401651994                         000000004164313351350000000000000000000000000610281119001005328900000000416431335135261119000000001782723700000  000000000000000000000000000000000000000000000000000000000000000000000000000000000000000000000000000000000000000000000                          1600000000                                                                  002875
1024745815300014000000060237401651994                         000000004164313357550000000000000000000000000610281119002010521200000000416431335755261119000000009651023700000  000000000000000000000000000000000000000000000000000000000000000000000000000000000000000000000000000000000000000000000                          1600000000                                                                  002876
1024745815300014000000060237401651994                         000000004164313359170000000000000000000000000610281119002010521300000000416431335917261119000000004825523700000  000000000000000000000000000000000000000000000000000000000000000000000000000000000000000000000000000000000000000000000                          1600000000                                                                  002877
1024745815300014000000060237401651994                         000000004164313359680000000000000000000000000610281119002010521400000000416431335968261119000000002481123700000  000000000000000000000000000000000000000000000000000000000000000000000000000000000000000000000000000000000000000000000                          1600000000                                                                  002878
1024745815300014000000060237401651994                         000000004164313361660000000000000000000000000610281119002010521600000000416431336166261119000000006434023700000  000000000000000000000000000000000000000000000000000000000000000000000000000000000000000000000000000000000000000000000                          1600000000                                                                  002879
1024745815300014000000060237401651994                         000000004164313366970000000000000000000000000610281119002010522100000000416431336697261119000000004825523700000  000000000000000000000000000000000000000000000000000000000000000000000000000000000000000000000000000000000000000000000                          1600000000                                                                  002880
1024745815300014000000060237401651994                         000000004164313382310000000000000000000000000610281119002010522700000000416431338231261119000000001936423700000  000000000000000000000000000000000000000000000000000000000000000000000000000000000000000000000000000000000000000000000                          1600000000                                                                  002881
1024745815300014000000060237401651994                         0000000041643133970P000000000000000000000000061028111900053241020000000041643133970P261119000000001914223700000  000000000000000000000000000000000000000000000000000000000000000000000000000000000000000000000000000000000000000000000                          1600000000                                                                  002882
1024745815300014000000060237401651994                         000000004164313397260000000000000000000000000610281119000532410200000000416431339726261119000000001914223700000  000000000000000000000000000000000000000000000000000000000000000000000000000000000000000000000000000000000000000000000                          1600000000                                                                  002883
1024745815300014000000060237401651994                         000000004164313397340000000000000000000000000610281119000532410200000000416431339734261119000000001914223700000  000000000000000000000000000000000000000000000000000000000000000000000000000000000000000000000000000000000000000000000                          1600000000                                                                  002884
1024745815300014000000060237401651994                         000000004164313401470000000000000000000000000610281119002006795200000000416431340147261119000000003787023700000  000000000000000000000000000000000000000000000000000000000000000000000000000000000000000000000000000000000000000000000                          1600000000                                                                  002885
1024745815300014000000060237401651994                         000000004164313401550000000000000000000000000610281119002000766300000000416431340155261119000000004621923700000  000000000000000000000000000000000000000000000000000000000000000000000000000000000000000000000000000000000000000000000                          1600000000                                                                  002886
1024745815300014000000060237401651994                         000000004164313401630000000000000000000000000610281119002006151100000000416431340163261119000000004281023700000  000000000000000000000000000000000000000000000000000000000000000000000000000000000000000000000000000000000000000000000                          1600000000                                                                  002887
1024745815300014000000060237401651994                         000000004164313402360000000000000000000000000610281119000532093500000000416431340236261119000000004268523700000  000000000000000000000000000000000000000000000000000000000000000000000000000000000000000000000000000000000000000000000                          1600000000                                                                  002888
1024745815300014000000060237401651994                         000000004164313402440000000000000000000000000610281119002007998500000000416431340244261119000000003861423700000  000000000000000000000000000000000000000000000000000000000000000000000000000000000000000000000000000000000000000000000                          1600000000                                                                  002889
1024745815300014000000060237401651994                         000000004164313402870000000000000000000000000610281119002005782600000000416431340287261119000000002143923700000  000000000000000000000000000000000000000000000000000000000000000000000000000000000000000000000000000000000000000000000                          1600000000                                                                  002890
1024745815300014000000060237401651994                         000000004164313402950000000000000000000000000610281119001003489800000000416431340295261119000000008429023700000  000000000000000000000000000000000000000000000000000000000000000000000000000000000000000000000000000000000000000000000                          1600000000                                                                  002891
1024745815300014000000060237401651994                         000000004164313403250000000000000000000000000610281119002002736700000000416431340325261119000000002481023700000  000000000000000000000000000000000000000000000000000000000000000000000000000000000000000000000000000000000000000000000                          1600000000                                                                  002892
1024745815300014000000060237401651994                         000000004164313403410000000000000000000000000610281119002008259300000000416431340341261119000000003861423700000  000000000000000000000000000000000000000000000000000000000000000000000000000000000000000000000000000000000000000000000                          1600000000                                                                  002893
1024745815300014000000060237401651994                         0000000041643134035P000000000000000000000000061028111900027269570000000041643134035P261119000000009467223700000  000000000000000000000000000000000000000000000000000000000000000000000000000000000000000000000000000000000000000000000                          1600000000                                                                  002894
1024745815300014000000060237401651994                         000000004164313403760000000000000000000000000610281119000272695700000000416431340376261119000000004644223700000  000000000000000000000000000000000000000000000000000000000000000000000000000000000000000000000000000000000000000000000                          1600000000                                                                  002895
1024745815300014000000060237401651994                         000000004164313403840000000000000000000000000610281119000273397600000000416431340384261119000000004518023700000  000000000000000000000000000000000000000000000000000000000000000000000000000000000000000000000000000000000000000000000                          1600000000                                                                  002896
1024745815300014000000060237401651994                         000000004164313404060000000000000000000000000610281119002003956600000000416431340406261119000000007458723700000  000000000000000000000000000000000000000000000000000000000000000000000000000000000000000000000000000000000000000000000                          1600000000                                                                  002897
1024745815300014000000060237401651994                         000000004164313404220000000000000000000000000610281119000278870300000000416431340422261119000000002949423700000  000000000000000000000000000000000000000000000000000000000000000000000000000000000000000000000000000000000000000000000                          1600000000                                                                  002898
1024745815300014000000060237401651994                         000000004164313405110000000000000000000000000610281119002008492900000000416431340511261119000000004033623700000  000000000000000000000000000000000000000000000000000000000000000000000000000000000000000000000000000000000000000000000                          1600000000                                                                  002899
1024745815300014000000060237401651994                         0000000041643134052P000000000000000000000000061028111900200570840000000041643134052P261119000000004456323700000  000000000000000000000000000000000000000000000000000000000000000000000000000000000000000000000000000000000000000000000                          1600000000                                                                  002900
1024745815300014000000060237401651994                         000000004164313405540000000000000000000000000610281119002007925800000000416431340554261119000000003243923700000  000000000000000000000000000000000000000000000000000000000000000000000000000000000000000000000000000000000000000000000                          1600000000                                                                  002901
1024745815300014000000060237401651994                         000000004164313406190000000000000000000000000610281119002001354100000000416431340619261119000000003263923700000  000000000000000000000000000000000000000000000000000000000000000000000000000000000000000000000000000000000000000000000                          1600000000                                                                  002902
1024745815300014000000060237401651994                         000000004164313406780000000000000000000000000610281119002008441300000000416431340678261119000000003895523700000  000000000000000000000000000000000000000000000000000000000000000000000000000000000000000000000000000000000000000000000                          1600000000                                                                  002903
1024745815300014000000060237401651994                         000000004164313406860000000000000000000000000610281119002008441200000000416431340686261119000000002318423700000  000000000000000000000000000000000000000000000000000000000000000000000000000000000000000000000000000000000000000000000                          1600000000                                                                  002904
1024745815300014000000060237401651994                         000000004164313407160000000000000000000000000610281119000277201900000000416431340716261119000000003812523700000  000000000000000000000000000000000000000000000000000000000000000000000000000000000000000000000000000000000000000000000                          1600000000                                                                  002905
1024745815300014000000060237401651994                         000000004164313407320000000000000000000000000610281119002006408300000000416431340732261119000000003861423700000  000000000000000000000000000000000000000000000000000000000000000000000000000000000000000000000000000000000000000000000                          1600000000                                                                  002906
1024745815300014000000060237401651994                         000000004164313408210000000000000000000000000610281119001004069900000000416431340821261119000000001969223700000  000000000000000000000000000000000000000000000000000000000000000000000000000000000000000000000000000000000000000000000                          1600000000                                                                  002907
1024745815300014000000060237401651994                         0000000041643134097P000000000000000000000000061028111900200858900000000041643134097P261119000000001936423700000  000000000000000000000000000000000000000000000000000000000000000000000000000000000000000000000000000000000000000000000                          1600000000                                                                  002908
1024745815300014000000060237401651994                         000000004164313410540000000000000000000000000610281119000274975900000000416431341054261119000000002752423700000  000000000000000000000000000000000000000000000000000000000000000000000000000000000000000000000000000000000000000000000                          1600000000                                                                  002909
1024745815300014000000060237401651994                         000000004164313410620000000000000000000000000610281119002007772100000000416431341062261119000000014241623700000  000000000000000000000000000000000000000000000000000000000000000000000000000000000000000000000000000000000000000000000                          1600000000                                                                  002910
1024745815300014000000060237401651994                         000000004164313410890000000000000000000000000610281119000250395000000000416431341089261119000000004467423700000  000000000000000000000000000000000000000000000000000000000000000000000000000000000000000000000000000000000000000000000                          1600000000                                                                  002911
1024745815300014000000060237401651994                         000000004164313411190000000000000000000000000610281119002008343500000000416431341119261119000000006527123700000  000000000000000000000000000000000000000000000000000000000000000000000000000000000000000000000000000000000000000000000                          1600000000                                                                  002912
1024745815300014000000060237401651994                         000000004164313411270000000000000000000000000610281119000266955700000000416431341127261119000000005056023700000  000000000000000000000000000000000000000000000000000000000000000000000000000000000000000000000000000000000000000000000                          1600000000                                                                  002913
1024745815300014000000060237401651994                         0000000041643134116P000000000000000000000000061028111900200207670000000041643134116P261119000000003719823700000  000000000000000000000000000000000000000000000000000000000000000000000000000000000000000000000000000000000000000000000                          1600000000                                                                  002914
1024745815300014000000060237401651994                         000000004164313411780000000000000000000000000610281119000241843000000000416431341178261119000000002559823700000  000000000000000000000000000000000000000000000000000000000000000000000000000000000000000000000000000000000000000000000                          1600000000                                                                  002915
1024745815300014000000060237401651994                         000000004164313412400000000000000000000000000610281119000272101400000000416431341240261119000000003559723700000  000000000000000000000000000000000000000000000000000000000000000000000000000000000000000000000000000000000000000000000                          1600000000                                                                  002916
1024745815300014000000060237401651994                         000000004164313412670000000000000000000000000610281119000280994800000000416431341267261119000000002485223700000  000000000000000000000000000000000000000000000000000000000000000000000000000000000000000000000000000000000000000000000                          1600000000                                                                  002917
1024745815300014000000060237401651994                         000000004164313412750000000000000000000000000610281119001003118200000000416431341275261119000000002039623700000  000000000000000000000000000000000000000000000000000000000000000000000000000000000000000000000000000000000000000000000                          1600000000                                                                  002918
1024745815300014000000060237401651994                         000000004164313413640000000000000000000000000610281119000273389500000000416431341364261119000000006095423700000  000000000000000000000000000000000000000000000000000000000000000000000000000000000000000000000000000000000000000000000                          1600000000                                                                  002919
1024745815300014000000060237401651994                         000000004164313414100000000000000000000000000610281119000279752100000000416431341410261119000000004802223700000  000000000000000000000000000000000000000000000000000000000000000000000000000000000000000000000000000000000000000000000                          1600000000                                                                  002920
1024745815300014000000060237401651994                         0000000041643134147P000000000000000000000000061028111900200323830000000041643134147P261119000000004980623700000  000000000000000000000000000000000000000000000000000000000000000000000000000000000000000000000000000000000000000000000                          1600000000                                                                  002921
1024745815300014000000060237401651994                         000000004164313415930000000000000000000000000610281119001000643400000000416431341593261119000000009170823700000  000000000000000000000000000000000000000000000000000000000000000000000000000000000000000000000000000000000000000000000                          1600000000                                                                  002922
1024745815300014000000060237401651994                         000000004164313416660000000000000000000000000610281119002008522000000000416431341666261119000000001493223700000  000000000000000000000000000000000000000000000000000000000000000000000000000000000000000000000000000000000000000000000                          1600000000                                                                  002923
1024745815300014000000060237401651994                         000000004164313416740000000000000000000000000610281119000284247800000000416431341674261119000000002324823700000  000000000000000000000000000000000000000000000000000000000000000000000000000000000000000000000000000000000000000000000                          1600000000                                                                  002924
1024745815300014000000060237401651994                         000000004164313418520000000000000000000000000610281119000268206600000000416431341852261119000000003313123700000  000000000000000000000000000000000000000000000000000000000000000000000000000000000000000000000000000000000000000000000                          1600000000                                                                  002925
1024745815300014000000060237401651994                         000000004164313418790000000000000000000000000610281119000260131200000000416431341879261119000000009159923700000  000000000000000000000000000000000000000000000000000000000000000000000000000000000000000000000000000000000000000000000                          1600000000                                                                  002926
1024745815300014000000060237401651994                         000000004164313418950000000000000000000000000610281119002004675400000000416431341895261119000000018807823700000  000000000000000000000000000000000000000000000000000000000000000000000000000000000000000000000000000000000000000000000                          1600000000                                                                  002927
1024745815300014000000060237401651994                         000000004164313419680000000000000000000000000610281119000253156300000000416431341968261119000000002918023700000  000000000000000000000000000000000000000000000000000000000000000000000000000000000000000000000000000000000000000000000                          1600000000                                                                  002928
1024745815300014000000060237401651994                         0000000041643134200P000000000000000000000000061028111900026757020000000041643134200P261119000000005933023700000  000000000000000000000000000000000000000000000000000000000000000000000000000000000000000000000000000000000000000000000                          1600000000                                                                  002929
1024745815300014000000060237401651994                         000000004164313421070000000000000000000000000610281119002009334300000000416431342107261119000000005298823700000  000000000000000000000000000000000000000000000000000000000000000000000000000000000000000000000000000000000000000000000                          1600000000                                                                  002930
1024745815300014000000060237401651994                         000000004164313421230000000000000000000000000610281119002008834600000000416431342123261119000000003861423700000  000000000000000000000000000000000000000000000000000000000000000000000000000000000000000000000000000000000000000000000                          1600000000                                                                  002931
1024745815300014000000060237401651994                         000000004164313422630000000000000000000000000610281119000255741300000000416431342263261119000000007400923700000  000000000000000000000000000000000000000000000000000000000000000000000000000000000000000000000000000000000000000000000                          1600000000                                                                  002932
1024745815300014000000060237401651994                         000000004164313423790000000000000000000000000610281119002007186800000000416431342379261119000000006391723700000  000000000000000000000000000000000000000000000000000000000000000000000000000000000000000000000000000000000000000000000                          1600000000                                                                  002933
1024745815300014000000060237401651994                         0000000041643134245P000000000000000000000000061028111900027987050000000041643134245P261119000000004315023700000  000000000000000000000000000000000000000000000000000000000000000000000000000000000000000000000000000000000000000000000                          1600000000                                                                  002934
1024745815300014000000060237401651994                         000000004164313425060000000000000000000000000610281119000531645300000000416431342506261119000000002173323700000  000000000000000000000000000000000000000000000000000000000000000000000000000000000000000000000000000000000000000000000                          1600000000                                                                  002935
1024745815300014000000060237401651994                         000000004164313426970000000000000000000000000610281119002009776700000000416431342697261119000000005331323700000  000000000000000000000000000000000000000000000000000000000000000000000000000000000000000000000000000000000000000000000                          1600000000                                                                  002936
1024745815300014000000060237401651994                         000000004164313428080000000000000000000000000610281119000280590300000000416431342808261119000000005494323700000  000000000000000000000000000000000000000000000000000000000000000000000000000000000000000000000000000000000000000000000                          1600000000                                                                  002937
1024745815300014000000060237401651994                         000000004164313428830000000000000000000000000610281119000271339800000000416431342883261119000000003044623700000  000000000000000000000000000000000000000000000000000000000000000000000000000000000000000000000000000000000000000000000                          1600000000                                                                  002938
1024745815300014000000060237401651994                         000000004164313429050000000000000000000000000610281119002008444300000000416431342905261119000000002311523700000  000000000000000000000000000000000000000000000000000000000000000000000000000000000000000000000000000000000000000000000                          1600000000                                                                  002939
1024745815300014000000060237401651994                         000000004164313429560000000000000000000000000610281119001003361900000000416431342956261119000000002567823700000  000000000000000000000000000000000000000000000000000000000000000000000000000000000000000000000000000000000000000000000                          1600000000                                                                  002940
1024745815300014000000060237401651994                         000000004164313429640000000000000000000000000610281119000261313300000000416431342964261119000000010591523700000  000000000000000000000000000000000000000000000000000000000000000000000000000000000000000000000000000000000000000000000                          1600000000                                                                  002941
1024745815300014000000060237401651994                         000000004164313429720000000000000000000000000610281119000261313300000000416431342972261119000000010591523700000  000000000000000000000000000000000000000000000000000000000000000000000000000000000000000000000000000000000000000000000                          1600000000                                                                  002942
1024745815300014000000060237401651994                         000000004164313430060000000000000000000000000610281119000283593700000000416431343006261119000000002265323700000  000000000000000000000000000000000000000000000000000000000000000000000000000000000000000000000000000000000000000000000                          1600000000                                                                  002943
1024745815300014000000060237401651994                         000000004164313430650000000000000000000000000610281119002008228300000000416431343065261119000000002330123700000  000000000000000000000000000000000000000000000000000000000000000000000000000000000000000000000000000000000000000000000                          1600000000                                                                  002944
1024745815300014000000060237401651994                         000000004164313430810000000000000000000000000610281119001003361900000000416431343081261119000000001260523700000  000000000000000000000000000000000000000000000000000000000000000000000000000000000000000000000000000000000000000000000                          1600000000                                                                  002945
1024745815300014000000060237401651994                         000000004164313433080000000000000000000000000610281119001003964900000000416431343308261119000000003559823700000  000000000000000000000000000000000000000000000000000000000000000000000000000000000000000000000000000000000000000000000                          1600000000                                                                  002946
1024745815300014000000060237401651994                         000000004164313433750000000000000000000000000610281119002004952800000000416431343375261119000000005425423700000  000000000000000000000000000000000000000000000000000000000000000000000000000000000000000000000000000000000000000000000                          1600000000                                                                  002947
1024745815300014000000060237401651994                         000000004164313434560000000000000000000000000610281119002009983600000000416431343456261119000000003513023700000  000000000000000000000000000000000000000000000000000000000000000000000000000000000000000000000000000000000000000000000                          1600000000                                                                  002948
1024745815300014000000060237401651994                         000000004164313436690000000000000000000000000610281119002008634400000000416431343669261119000000015539223700000  000000000000000000000000000000000000000000000000000000000000000000000000000000000000000000000000000000000000000000000                          1600000000                                                                  002949
1024745815300014000000060237401651994                         000000004164313438200000000000000000000000000610281119002008874000000000416431343820261119000000002601523700000  000000000000000000000000000000000000000000000000000000000000000000000000000000000000000000000000000000000000000000000                          1600000000                                                                  002950
1024745815300014000000060237401651994                         000000004164313438630000000000000000000000000610281119002006039400000000416431343863261119000000002935523700000  000000000000000000000000000000000000000000000000000000000000000000000000000000000000000000000000000000000000000000000                          1600000000                                                                  002951
1024745815300014000000060237401651994                         0000000041643134391P000000000000000000000000061028111900200988380000000041643134391P261119000000006432223700000  000000000000000000000000000000000000000000000000000000000000000000000000000000000000000000000000000000000000000000000                          1600000000                                                                  002952
1024745815300014000000060237401651994                         000000004164313439520000000000000000000000000610281119002008380500000000416431343952261119000000004296423700000  000000000000000000000000000000000000000000000000000000000000000000000000000000000000000000000000000000000000000000000                          1600000000                                                                  002953
1024745815300014000000060237401651994                         000000004164313441850000000000000000000000000610281119001003689600000000416431344185261119000000005075523700000  000000000000000000000000000000000000000000000000000000000000000000000000000000000000000000000000000000000000000000000                          1600000000                                                                  002954
1024745815300014000000060237401651994                         000000004164313442150000000000000000000000000610281119000278030800000000416431344215261119000000005418023700000  000000000000000000000000000000000000000000000000000000000000000000000000000000000000000000000000000000000000000000000                          1600000000                                                                  002955
1024745815300014000000060237401651994                         000000004164313442900000000000000000000000000610281119002001431900000000416431344290261119000000003838023700000  000000000000000000000000000000000000000000000000000000000000000000000000000000000000000000000000000000000000000000000                          1600000000                                                                  002956
1024745815300014000000060237401651994                         000000004164313444010000000000000000000000000610281119000279507600000000416431344401261119000000001111123700000  000000000000000000000000000000000000000000000000000000000000000000000000000000000000000000000000000000000000000000000                          1600000000                                                                  002957
1024745815300014000000060237401651994                         000000004164313444360000000000000000000000000610281119000269672500000000416431344436261119000000002980523700000  000000000000000000000000000000000000000000000000000000000000000000000000000000000000000000000000000000000000000000000                          1600000000                                                                  002958
1024745815300014000000060237401651994                         000000004164313445330000000000000000000000000610281119000283995400000000416431344533261119000000004159423700000  000000000000000000000000000000000000000000000000000000000000000000000000000000000000000000000000000000000000000000000                          1600000000                                                                  002959
1024745815300014000000060237401651994                         000000004164313445410000000000000000000000000610281119000269636000000000416431344541261119000000002559223700000  000000000000000000000000000000000000000000000000000000000000000000000000000000000000000000000000000000000000000000000                          1600000000                                                                  002960
1024745815300014000000060237401651994                         000000004164313445920000000000000000000000000610281119000267944200000000416431344592261119000000004763123700000  000000000000000000000000000000000000000000000000000000000000000000000000000000000000000000000000000000000000000000000                          1600000000                                                                  002961
1024745815300014000000060237401651994                         000000004164313447540000000000000000000000000610281119002003692800000000416431344754261119000000004255723700000  000000000000000000000000000000000000000000000000000000000000000000000000000000000000000000000000000000000000000000000                          1600000000                                                                  002962
1024745815300014000000060237401651994                         000000004164313450250000000000000000000000000610281119002009249400000000416431345025261119000000005040823700000  000000000000000000000000000000000000000000000000000000000000000000000000000000000000000000000000000000000000000000000                          1600000000                                                                  002963
1024745815300014000000060237401651994                         000000004164313450680000000000000000000000000610281119000267022000000000416431345068261119000000002325823700000  000000000000000000000000000000000000000000000000000000000000000000000000000000000000000000000000000000000000000000000                          1600000000                                                                  002964
1024745815300014000000060237401651994                         000000004164313451140000000000000000000000000610281119000281523000000000416431345114261119000000005231023700000  000000000000000000000000000000000000000000000000000000000000000000000000000000000000000000000000000000000000000000000                          1600000000                                                                  002965
1024745815300014000000060237401651994                         000000004164313453780000000000000000000000000610281119000267485900000000416431345378261119000000006219323700000  000000000000000000000000000000000000000000000000000000000000000000000000000000000000000000000000000000000000000000000                          1600000000                                                                  002966
1024745815300014000000060237401651994                         000000004164313453860000000000000000000000000610281119000262303300000000416431345386261119000000003361523700000  000000000000000000000000000000000000000000000000000000000000000000000000000000000000000000000000000000000000000000000                          1600000000                                                                  002967
1024745815300014000000060237401651994                         000000004164313454160000000000000000000000000610281119002008887200000000416431345416261119000000002239423700000  000000000000000000000000000000000000000000000000000000000000000000000000000000000000000000000000000000000000000000000                          1600000000                                                                  002968
1024745815300014000000060237401651994                         000000004164313454830000000000000000000000000610281119002005371200000000416431345483261119000000009055423700000  000000000000000000000000000000000000000000000000000000000000000000000000000000000000000000000000000000000000000000000                          1600000000                                                                  002969
1024745815300014000000060237401651994                         000000004164313455800000000000000000000000000610281119000261869000000000416431345580261119000000003165423700000  000000000000000000000000000000000000000000000000000000000000000000000000000000000000000000000000000000000000000000000                          1600000000                                                                  002970
1024745815300014000000060237401651994                         000000004164313456290000000000000000000000000610281119002001720900000000416431345629261119000000002773223700000  000000000000000000000000000000000000000000000000000000000000000000000000000000000000000000000000000000000000000000000                          1600000000                                                                  002971
1024745815300014000000060237401651994                         000000004164313456530000000000000000000000000610281119000279866900000000416431345653261119000000003643723700000  000000000000000000000000000000000000000000000000000000000000000000000000000000000000000000000000000000000000000000000                          1600000000                                                                  002972
1024745815300014000000060237401651994                         0000000041643134567P000000000000000000000000061028111900200250380000000041643134567P261119000000002742923700000  000000000000000000000000000000000000000000000000000000000000000000000000000000000000000000000000000000000000000000000                          1600000000                                                                  002973
1024745815300014000000060237401651994                         000000004164313457340000000000000000000000000610281119000532339500000000416431345734261119000000015384423700000  000000000000000000000000000000000000000000000000000000000000000000000000000000000000000000000000000000000000000000000                          1600000000                                                                  002974
1024745815300014000000060237401651994                         000000004164313458150000000000000000000000000610281119002007269900000000416431345815261119000000001782723700000  000000000000000000000000000000000000000000000000000000000000000000000000000000000000000000000000000000000000000000000                          1600000000                                                                  002975
1024745815300014000000060237401651994                         000000004164313458310000000000000000000000000610281119002003836100000000416431345831261119000000005138523700000  000000000000000000000000000000000000000000000000000000000000000000000000000000000000000000000000000000000000000000000                          1600000000                                                                  002976
1024745815300014000000060237401651994                         000000004164313459980000000000000000000000000610281119002007597100000000416431345998261119000000002801823700000  000000000000000000000000000000000000000000000000000000000000000000000000000000000000000000000000000000000000000000000                          1600000000                                                                  002977
1024745815300014000000060237401651994                         000000004164313460720000000000000000000000000610281119002009294500000000416431346072261119000000001914223700000  000000000000000000000000000000000000000000000000000000000000000000000000000000000000000000000000000000000000000000000                          1600000000                                                                  002978
1024745815300014000000060237401651994                         0000000041643134620P000000000000000000000000061028111900025716740000000041643134620P261119000000003219023700000  000000000000000000000000000000000000000000000000000000000000000000000000000000000000000000000000000000000000000000000                          1600000000                                                                  002979
1024745815300014000000060237401651994                         000000004164313463070000000000000000000000000610281119000261464100000000416431346307261119000000002008023700000  000000000000000000000000000000000000000000000000000000000000000000000000000000000000000000000000000000000000000000000                          1600000000                                                                  002980
1024745815300014000000060237401651994                         000000004164313464550000000000000000000000000610281119000280326600000000416431346455261119000000005743723700000  000000000000000000000000000000000000000000000000000000000000000000000000000000000000000000000000000000000000000000000                          1600000000                                                                  002981
1024745815300014000000060237401651994                         000000004164313466330000000000000000000000000610281119002008263200000000416431346633261119000000003944823700000  000000000000000000000000000000000000000000000000000000000000000000000000000000000000000000000000000000000000000000000                          1600000000                                                                  002982
1024745815300014000000060237401651994                         000000004164313466920000000000000000000000000610281119001002296700000000416431346692261119000000005517923700000  000000000000000000000000000000000000000000000000000000000000000000000000000000000000000000000000000000000000000000000                          1600000000                                                                  002983
1024745815300014000000060237401651994                         000000004164313467570000000000000000000000000610281119000282716300000000416431346757261119000000006724523700000  000000000000000000000000000000000000000000000000000000000000000000000000000000000000000000000000000000000000000000000                          1600000000                                                                  002984
1024745815300014000000060237401651994                         000000004164313468970000000000000000000000000610281119001001215700000000416431346897261119000000001521023700000  000000000000000000000000000000000000000000000000000000000000000000000000000000000000000000000000000000000000000000000                          1600000000                                                                  002985
1024745815300014000000060237401651994                         0000000041643134696P000000000000000000000000061028111900023989150000000041643134696P261119000000004329823700000  000000000000000000000000000000000000000000000000000000000000000000000000000000000000000000000000000000000000000000000                          1600000000                                                                  002986
1024745815300014000000060237401651994                         000000004164313470870000000000000000000000000610281119002009029300000000416431347087261119000000028333723700000  000000000000000000000000000000000000000000000000000000000000000000000000000000000000000000000000000000000000000000000                          1600000000                                                                  002987
1024745815300014000000060237401651994                         000000004164313471330000000000000000000000000610281119002009029400000000416431347133261119000000024363223700000  000000000000000000000000000000000000000000000000000000000000000000000000000000000000000000000000000000000000000000000                          1600000000                                                                  002988
1024745815300014000000060237401651994                         000000004164313472810000000000000000000000000610281119000271715200000000416431347281261119000000004980523700000  000000000000000000000000000000000000000000000000000000000000000000000000000000000000000000000000000000000000000000000                          1600000000                                                                  002989
1024745815300014000000060237401651994                         000000004164313473700000000000000000000000000610281119000270281200000000416431347370261119000000005316423700000  000000000000000000000000000000000000000000000000000000000000000000000000000000000000000000000000000000000000000000000                          1600000000                                                                  002990
1024745815300014000000060237401651994                         000000004164313474350000000000000000000000000610281119002007707300000000416431347435261119000000002132323700000  000000000000000000000000000000000000000000000000000000000000000000000000000000000000000000000000000000000000000000000                          1600000000                                                                  002991
1024745815300014000000060237401651994                         000000004164313474510000000000000000000000000610281119002009677700000000416431347451261119000000002783823700000  000000000000000000000000000000000000000000000000000000000000000000000000000000000000000000000000000000000000000000000                          1600000000                                                                  002992
1024745815300014000000060237401651994                         000000004164313474860000000000000000000000000610281119000258917500000000416431347486261119000000003341923700000  000000000000000000000000000000000000000000000000000000000000000000000000000000000000000000000000000000000000000000000                          1600000000                                                                  002993
1024745815300014000000060237401651994                         000000004164313475400000000000000000000000000610281119000258917500000000416431347540261119000000003220723700000  000000000000000000000000000000000000000000000000000000000000000000000000000000000000000000000000000000000000000000000                          1600000000                                                                  002994
1024745815300014000000060237401651994                         000000004164313476990000000000000000000000000610281119000250187000000000416431347699261119000000002661323700000  000000000000000000000000000000000000000000000000000000000000000000000000000000000000000000000000000000000000000000000                          1600000000                                                                  002995
1024745815300014000000060237401651994                         000000004164313477290000000000000000000000000610281119000250187000000000416431347729261119000000002637123700000  000000000000000000000000000000000000000000000000000000000000000000000000000000000000000000000000000000000000000000000                          1600000000                                                                  002996
